{
  "contractName": "TokenCapGC",
  "abi": [
    {
      "constant": true,
      "inputs": [
        {
          "internalType": "bytes32",
          "name": "",
          "type": "bytes32"
        }
      ],
      "name": "parameters",
      "outputs": [
        {
          "internalType": "contract IERC20",
          "name": "token",
          "type": "address"
        },
        {
          "internalType": "uint256",
          "name": "cap",
          "type": "uint256"
        }
      ],
      "payable": false,
      "stateMutability": "view",
      "type": "function"
    },
    {
      "constant": false,
      "inputs": [
        {
          "internalType": "contract IERC20",
          "name": "_token",
          "type": "address"
        },
        {
          "internalType": "uint256",
          "name": "_cap",
          "type": "uint256"
        }
      ],
      "name": "setParameters",
      "outputs": [
        {
          "internalType": "bytes32",
          "name": "",
          "type": "bytes32"
        }
      ],
      "payable": false,
      "stateMutability": "nonpayable",
      "type": "function"
    },
    {
      "constant": true,
      "inputs": [
        {
          "internalType": "contract IERC20",
          "name": "_token",
          "type": "address"
        },
        {
          "internalType": "uint256",
          "name": "_cap",
          "type": "uint256"
        }
      ],
      "name": "getParametersHash",
      "outputs": [
        {
          "internalType": "bytes32",
          "name": "",
          "type": "bytes32"
        }
      ],
      "payable": false,
      "stateMutability": "pure",
      "type": "function"
    },
    {
      "constant": true,
      "inputs": [
        {
          "internalType": "address",
          "name": "",
          "type": "address"
        },
        {
          "internalType": "bytes32",
          "name": "",
          "type": "bytes32"
        },
        {
          "internalType": "bytes32",
          "name": "",
          "type": "bytes32"
        }
      ],
      "name": "pre",
      "outputs": [
        {
          "internalType": "bool",
          "name": "",
          "type": "bool"
        }
      ],
      "payable": false,
      "stateMutability": "pure",
      "type": "function"
    },
    {
      "constant": true,
      "inputs": [
        {
          "internalType": "address",
          "name": "",
          "type": "address"
        },
        {
          "internalType": "bytes32",
          "name": "_paramsHash",
          "type": "bytes32"
        },
        {
          "internalType": "bytes32",
          "name": "",
          "type": "bytes32"
        }
      ],
      "name": "post",
      "outputs": [
        {
          "internalType": "bool",
          "name": "",
          "type": "bool"
        }
      ],
      "payable": false,
      "stateMutability": "view",
      "type": "function"
    },
    {
      "constant": true,
      "inputs": [],
      "name": "when",
      "outputs": [
        {
          "internalType": "enum GlobalConstraintInterface.CallPhase",
          "name": "",
          "type": "uint8"
        }
      ],
      "payable": false,
      "stateMutability": "pure",
      "type": "function"
    }
  ],
  "bytecode": "0x608060405234801561001057600080fd5b50610580806100206000396000f3fe608060405234801561001057600080fd5b50600436106100625760003560e01c8063025068041461006757806378fc063c146100dc5780638043154d1461013e578063c1786ab2146101ae578063c41981611461021e578063e2b0caef14610280575b600080fd5b6100936004803603602081101561007d57600080fd5b81019080803590602001909291905050506102ac565b604051808373ffffffffffffffffffffffffffffffffffffffff1673ffffffffffffffffffffffffffffffffffffffff1681526020018281526020019250505060405180910390f35b610128600480360360408110156100f257600080fd5b81019080803573ffffffffffffffffffffffffffffffffffffffff169060200190929190803590602001909291905050506102f0565b6040518082815260200191505060405180910390f35b6101946004803603606081101561015457600080fd5b81019080803573ffffffffffffffffffffffffffffffffffffffff1690602001909291908035906020019092919080359060200190929190505050610358565b604051808215151515815260200191505060405180910390f35b610204600480360360608110156101c457600080fd5b81019080803573ffffffffffffffffffffffffffffffffffffffff16906020019092919080359060200190929190803590602001909291905050506104ae565b604051808215151515815260200191505060405180910390f35b61026a6004803603604081101561023457600080fd5b81019080803573ffffffffffffffffffffffffffffffffffffffff169060200190929190803590602001909291905050506104bb565b6040518082815260200191505060405180910390f35b610288610542565b6040518082600281111561029857fe5b60ff16815260200191505060405180910390f35b60006020528060005260406000206000915090508060000160009054906101000a900473ffffffffffffffffffffffffffffffffffffffff16908060010154905082565b60008282604051602001808373ffffffffffffffffffffffffffffffffffffffff1673ffffffffffffffffffffffffffffffffffffffff1660601b81526014018281526020019250505060405160208183030381529060405280519060200120905092915050565b60008073ffffffffffffffffffffffffffffffffffffffff1660008085815260200190815260200160002060000160009054906101000a900473ffffffffffffffffffffffffffffffffffffffff1673ffffffffffffffffffffffffffffffffffffffff161415801561049457506000808481526020019081526020016000206001015460008085815260200190815260200160002060000160009054906101000a900473ffffffffffffffffffffffffffffffffffffffff1673ffffffffffffffffffffffffffffffffffffffff166318160ddd6040518163ffffffff1660e01b815260040160206040518083038186803b15801561045757600080fd5b505afa15801561046b573d6000803e3d6000fd5b505050506040513d602081101561048157600080fd5b8101908080519060200190929190505050115b156104a257600090506104a7565b600190505b9392505050565b6000600190509392505050565b6000806104c884846102f0565b90508360008083815260200190815260200160002060000160006101000a81548173ffffffffffffffffffffffffffffffffffffffff021916908373ffffffffffffffffffffffffffffffffffffffff16021790555082600080838152602001908152602001600020600101819055508091505092915050565b6000600190509056fea265627a7a723158203600a178cf363c873bdbf6e5e37a5a0f205ee8d9340c60669699734d070d4bf164736f6c634300050d0032",
  "source": "pragma solidity >=0.5.13;\n\nimport \"openzeppelin-solidity/contracts/token/ERC20/IERC20.sol\";\nimport \"./GlobalConstraintInterface.sol\";\n\n\n/**\n * @title Token Cap Global Constraint\n * @dev A simple global constraint to cap the number of tokens.\n */\n\ncontract TokenCapGC {\n    // A set of parameters, on which the cap will be checked:\n    struct Parameters {\n        IERC20 token;\n        uint256 cap;\n    }\n\n    // Mapping from the hash of the parameters to the parameters themselves:\n    mapping (bytes32=>Parameters) public parameters;\n\n    /**\n     * @dev adding a new set of parameters\n     * @param  _token the token to add to the params.\n     * @param _cap the cap to check the total supply against.\n     * @return the calculated parameters hash\n     */\n    function setParameters(IERC20 _token, uint256 _cap) public returns(bytes32) {\n        bytes32 paramsHash = getParametersHash(_token, _cap);\n        parameters[paramsHash].token = _token;\n        parameters[paramsHash].cap = _cap;\n        return paramsHash;\n    }\n\n    /**\n     * @dev calculate and returns the hash of the given parameters\n     * @param  _token the token to add to the params.\n     * @param _cap the cap to check the total supply against.\n     * @return the calculated parameters hash\n     */\n    function getParametersHash(IERC20 _token, uint256 _cap) public pure returns(bytes32) {\n        return (keccak256(abi.encodePacked(_token, _cap)));\n    }\n\n    /**\n     * @dev check the constraint after the action.\n     * This global constraint only checks the state after the action, so here we just return true:\n     * @return true\n     */\n    function pre(address, bytes32, bytes32) public pure returns(bool) {\n        return true;\n    }\n\n    /**\n     * @dev check the total supply cap.\n     * @param  _paramsHash the parameters hash to check the total supply cap against.\n     * @return bool which represents a success\n     */\n    function post(address, bytes32 _paramsHash, bytes32) public view returns(bool) {\n        if ((parameters[_paramsHash].token != IERC20(0)) &&\n            (parameters[_paramsHash].token.totalSupply() > parameters[_paramsHash].cap)) {\n            return false;\n        }\n        return true;\n    }\n\n    /**\n     * @dev when return if this globalConstraints is pre, post or both.\n     * @return CallPhase enum indication  Pre, Post or PreAndPost.\n     */\n    function when() public pure returns(GlobalConstraintInterface.CallPhase) {\n        return GlobalConstraintInterface.CallPhase.Post;\n    }\n}\n",
  "sourcePath": "/home/obaranni/blaize/snglsDAO-smartcontracts/dao/contracts/globalConstraints/TokenCapGC.sol",
  "compiler": {
    "name": "solc",
    "version": "0.5.13+commit.5b0b510c.Emscripten.clang"
  },
  "schemaVersion": "3.0.23",
  "updatedAt": "2020-03-19T16:29:31.931Z",
  "devdoc": {
    "details": "A simple global constraint to cap the number of tokens.",
    "methods": {
      "getParametersHash(address,uint256)": {
        "details": "calculate and returns the hash of the given parameters",
        "params": {
          "_cap": "the cap to check the total supply against.",
          "_token": "the token to add to the params."
        },
        "return": "the calculated parameters hash"
      },
      "post(address,bytes32,bytes32)": {
        "details": "check the total supply cap.",
        "params": {
          "_paramsHash": "the parameters hash to check the total supply cap against."
        },
        "return": "bool which represents a success"
      },
      "pre(address,bytes32,bytes32)": {
        "details": "check the constraint after the action. This global constraint only checks the state after the action, so here we just return true:",
        "return": "true"
      },
      "setParameters(address,uint256)": {
        "details": "adding a new set of parameters",
        "params": {
          "_cap": "the cap to check the total supply against.",
          "_token": "the token to add to the params."
        },
        "return": "the calculated parameters hash"
      },
      "when()": {
        "details": "when return if this globalConstraints is pre, post or both.",
        "return": "CallPhase enum indication  Pre, Post or PreAndPost."
      }
    },
    "title": "Token Cap Global Constraint"
  },
  "userdoc": {
    "methods": {}
  }
}