{
  "contractName": "AbsoluteVote",
  "abi": [
    {
      "anonymous": false,
      "inputs": [
        {
          "indexed": true,
          "internalType": "bytes32",
          "name": "_proposalId",
          "type": "bytes32"
        },
        {
          "indexed": false,
          "internalType": "bool",
          "name": "_isProxyVote",
          "type": "bool"
        }
      ],
      "name": "AVVoteProposal",
      "type": "event"
    },
    {
      "anonymous": false,
      "inputs": [
        {
          "indexed": true,
          "internalType": "bytes32",
          "name": "_proposalId",
          "type": "bytes32"
        },
        {
          "indexed": true,
          "internalType": "address",
          "name": "_organization",
          "type": "address"
        }
      ],
      "name": "CancelProposal",
      "type": "event"
    },
    {
      "anonymous": false,
      "inputs": [
        {
          "indexed": true,
          "internalType": "bytes32",
          "name": "_proposalId",
          "type": "bytes32"
        },
        {
          "indexed": true,
          "internalType": "address",
          "name": "_organization",
          "type": "address"
        },
        {
          "indexed": true,
          "internalType": "address",
          "name": "_voter",
          "type": "address"
        }
      ],
      "name": "CancelVoting",
      "type": "event"
    },
    {
      "anonymous": false,
      "inputs": [
        {
          "indexed": true,
          "internalType": "bytes32",
          "name": "_proposalId",
          "type": "bytes32"
        },
        {
          "indexed": true,
          "internalType": "address",
          "name": "_organization",
          "type": "address"
        },
        {
          "indexed": false,
          "internalType": "uint256",
          "name": "_decision",
          "type": "uint256"
        },
        {
          "indexed": false,
          "internalType": "uint256",
          "name": "_totalReputation",
          "type": "uint256"
        }
      ],
      "name": "ExecuteProposal",
      "type": "event"
    },
    {
      "anonymous": false,
      "inputs": [
        {
          "indexed": true,
          "internalType": "bytes32",
          "name": "_proposalId",
          "type": "bytes32"
        },
        {
          "indexed": true,
          "internalType": "address",
          "name": "_organization",
          "type": "address"
        },
        {
          "indexed": false,
          "internalType": "uint256",
          "name": "_numOfChoices",
          "type": "uint256"
        },
        {
          "indexed": false,
          "internalType": "address",
          "name": "_proposer",
          "type": "address"
        },
        {
          "indexed": false,
          "internalType": "bytes32",
          "name": "_paramsHash",
          "type": "bytes32"
        }
      ],
      "name": "NewProposal",
      "type": "event"
    },
    {
      "anonymous": false,
      "inputs": [
        {
          "indexed": true,
          "internalType": "bytes32",
          "name": "_proposalId",
          "type": "bytes32"
        },
        {
          "indexed": true,
          "internalType": "address",
          "name": "_organization",
          "type": "address"
        },
        {
          "indexed": true,
          "internalType": "address",
          "name": "_voter",
          "type": "address"
        },
        {
          "indexed": false,
          "internalType": "uint256",
          "name": "_vote",
          "type": "uint256"
        },
        {
          "indexed": false,
          "internalType": "uint256",
          "name": "_reputation",
          "type": "uint256"
        }
      ],
      "name": "VoteProposal",
      "type": "event"
    },
    {
      "constant": true,
      "inputs": [],
      "name": "MAX_NUM_OF_CHOICES",
      "outputs": [
        {
          "internalType": "uint256",
          "name": "",
          "type": "uint256"
        }
      ],
      "payable": false,
      "stateMutability": "view",
      "type": "function"
    },
    {
      "constant": true,
      "inputs": [
        {
          "internalType": "bytes32",
          "name": "",
          "type": "bytes32"
        }
      ],
      "name": "organizations",
      "outputs": [
        {
          "internalType": "address",
          "name": "",
          "type": "address"
        }
      ],
      "payable": false,
      "stateMutability": "view",
      "type": "function"
    },
    {
      "constant": true,
      "inputs": [
        {
          "internalType": "bytes32",
          "name": "",
          "type": "bytes32"
        }
      ],
      "name": "parameters",
      "outputs": [
        {
          "internalType": "uint256",
          "name": "precReq",
          "type": "uint256"
        },
        {
          "internalType": "address",
          "name": "voteOnBehalf",
          "type": "address"
        }
      ],
      "payable": false,
      "stateMutability": "view",
      "type": "function"
    },
    {
      "constant": true,
      "inputs": [
        {
          "internalType": "bytes32",
          "name": "",
          "type": "bytes32"
        }
      ],
      "name": "proposals",
      "outputs": [
        {
          "internalType": "bytes32",
          "name": "organizationId",
          "type": "bytes32"
        },
        {
          "internalType": "bool",
          "name": "open",
          "type": "bool"
        },
        {
          "internalType": "address",
          "name": "callbacks",
          "type": "address"
        },
        {
          "internalType": "uint256",
          "name": "numOfChoices",
          "type": "uint256"
        },
        {
          "internalType": "bytes32",
          "name": "paramsHash",
          "type": "bytes32"
        },
        {
          "internalType": "uint256",
          "name": "totalVotes",
          "type": "uint256"
        }
      ],
      "payable": false,
      "stateMutability": "view",
      "type": "function"
    },
    {
      "constant": true,
      "inputs": [],
      "name": "proposalsCnt",
      "outputs": [
        {
          "internalType": "uint256",
          "name": "",
          "type": "uint256"
        }
      ],
      "payable": false,
      "stateMutability": "view",
      "type": "function"
    },
    {
      "constant": false,
      "inputs": [
        {
          "internalType": "uint256",
          "name": "_numOfChoices",
          "type": "uint256"
        },
        {
          "internalType": "bytes32",
          "name": "_paramsHash",
          "type": "bytes32"
        },
        {
          "internalType": "address",
          "name": "",
          "type": "address"
        },
        {
          "internalType": "address",
          "name": "_organization",
          "type": "address"
        }
      ],
      "name": "propose",
      "outputs": [
        {
          "internalType": "bytes32",
          "name": "",
          "type": "bytes32"
        }
      ],
      "payable": false,
      "stateMutability": "nonpayable",
      "type": "function"
    },
    {
      "constant": false,
      "inputs": [
        {
          "internalType": "bytes32",
          "name": "_proposalId",
          "type": "bytes32"
        },
        {
          "internalType": "uint256",
          "name": "_vote",
          "type": "uint256"
        },
        {
          "internalType": "uint256",
          "name": "_amount",
          "type": "uint256"
        },
        {
          "internalType": "address",
          "name": "_voter",
          "type": "address"
        }
      ],
      "name": "vote",
      "outputs": [
        {
          "internalType": "bool",
          "name": "",
          "type": "bool"
        }
      ],
      "payable": false,
      "stateMutability": "nonpayable",
      "type": "function"
    },
    {
      "constant": false,
      "inputs": [
        {
          "internalType": "bytes32",
          "name": "_proposalId",
          "type": "bytes32"
        }
      ],
      "name": "cancelVote",
      "outputs": [],
      "payable": false,
      "stateMutability": "nonpayable",
      "type": "function"
    },
    {
      "constant": false,
      "inputs": [
        {
          "internalType": "bytes32",
          "name": "_proposalId",
          "type": "bytes32"
        }
      ],
      "name": "execute",
      "outputs": [
        {
          "internalType": "bool",
          "name": "",
          "type": "bool"
        }
      ],
      "payable": false,
      "stateMutability": "nonpayable",
      "type": "function"
    },
    {
      "constant": true,
      "inputs": [
        {
          "internalType": "bytes32",
          "name": "_proposalId",
          "type": "bytes32"
        }
      ],
      "name": "getNumberOfChoices",
      "outputs": [
        {
          "internalType": "uint256",
          "name": "",
          "type": "uint256"
        }
      ],
      "payable": false,
      "stateMutability": "view",
      "type": "function"
    },
    {
      "constant": true,
      "inputs": [
        {
          "internalType": "bytes32",
          "name": "_proposalId",
          "type": "bytes32"
        },
        {
          "internalType": "address",
          "name": "_voter",
          "type": "address"
        }
      ],
      "name": "voteInfo",
      "outputs": [
        {
          "internalType": "uint256",
          "name": "",
          "type": "uint256"
        },
        {
          "internalType": "uint256",
          "name": "",
          "type": "uint256"
        }
      ],
      "payable": false,
      "stateMutability": "view",
      "type": "function"
    },
    {
      "constant": true,
      "inputs": [
        {
          "internalType": "bytes32",
          "name": "_proposalId",
          "type": "bytes32"
        },
        {
          "internalType": "uint256",
          "name": "_choice",
          "type": "uint256"
        }
      ],
      "name": "voteStatus",
      "outputs": [
        {
          "internalType": "uint256",
          "name": "",
          "type": "uint256"
        }
      ],
      "payable": false,
      "stateMutability": "view",
      "type": "function"
    },
    {
      "constant": true,
      "inputs": [
        {
          "internalType": "bytes32",
          "name": "_proposalId",
          "type": "bytes32"
        }
      ],
      "name": "isVotable",
      "outputs": [
        {
          "internalType": "bool",
          "name": "",
          "type": "bool"
        }
      ],
      "payable": false,
      "stateMutability": "view",
      "type": "function"
    },
    {
      "constant": true,
      "inputs": [],
      "name": "isAbstainAllow",
      "outputs": [
        {
          "internalType": "bool",
          "name": "",
          "type": "bool"
        }
      ],
      "payable": false,
      "stateMutability": "pure",
      "type": "function"
    },
    {
      "constant": true,
      "inputs": [],
      "name": "getAllowedRangeOfChoices",
      "outputs": [
        {
          "internalType": "uint256",
          "name": "min",
          "type": "uint256"
        },
        {
          "internalType": "uint256",
          "name": "max",
          "type": "uint256"
        }
      ],
      "payable": false,
      "stateMutability": "pure",
      "type": "function"
    },
    {
      "constant": false,
      "inputs": [
        {
          "internalType": "uint256",
          "name": "_precReq",
          "type": "uint256"
        },
        {
          "internalType": "address",
          "name": "_voteOnBehalf",
          "type": "address"
        }
      ],
      "name": "setParameters",
      "outputs": [
        {
          "internalType": "bytes32",
          "name": "",
          "type": "bytes32"
        }
      ],
      "payable": false,
      "stateMutability": "nonpayable",
      "type": "function"
    },
    {
      "constant": true,
      "inputs": [
        {
          "internalType": "uint256",
          "name": "_precReq",
          "type": "uint256"
        },
        {
          "internalType": "address",
          "name": "_voteOnBehalf",
          "type": "address"
        }
      ],
      "name": "getParametersHash",
      "outputs": [
        {
          "internalType": "bytes32",
          "name": "",
          "type": "bytes32"
        }
      ],
      "payable": false,
      "stateMutability": "pure",
      "type": "function"
    }
  ],
  "bytecode": "0x608060405234801561001057600080fd5b506110ef806100206000396000f3fe608060405234801561001057600080fd5b506004361061010b5760003560e01c806351d997b2116100a2578063a003651d11610071578063a003651d1461031a578063b451291314610337578063ba51b14e1461035a578063c083510614610393578063e751f271146103b05761010b565b806351d997b2146102b157806388737b5e146102b95780638d22651e146102f35780639525c0cc146102fb5761010b565b8063289647e4116100de578063289647e4146101d957806332ed5b1214610205578063359afa491461025d5780635142bc1e146102a95761010b565b80630250680414610110578063119ce91b1461014e57806321b4b3dc1461019357806323d840f5146101ad575b600080fd5b61012d6004803603602081101561012657600080fd5b50356103cd565b604080519283526001600160a01b0390911660208301528051918290030190f35b61017a6004803603604081101561016457600080fd5b50803590602001356001600160a01b03166103ef565b6040805192835260208301919091528051918290030190f35b61019b610440565b60408051918252519081900360200190f35b61019b600480360360408110156101c357600080fd5b50803590602001356001600160a01b0316610446565b61019b600480360360408110156101ef57600080fd5b50803590602001356001600160a01b03166104c2565b6102226004803603602081101561021b57600080fd5b5035610501565b6040805196875294151560208701526001600160a01b03909316858501526060850191909152608084015260a0830152519081900360c00190f35b6102956004803603608081101561027357600080fd5b50803590602081013590604081013590606001356001600160a01b0316610541565b604080519115158252519081900360200190f35b61017a6105f7565b6102956105ff565b61019b600480360360808110156102cf57600080fd5b508035906020810135906001600160a01b0360408201358116916060013516610604565b61019b610824565b6103186004803603602081101561031157600080fd5b5035610829565b005b61019b6004803603602081101561033057600080fd5b5035610858565b61019b6004803603604081101561034d57600080fd5b508035906020013561086d565b6103776004803603602081101561037057600080fd5b503561088e565b604080516001600160a01b039092168252519081900360200190f35b610295600480360360208110156103a957600080fd5b50356108a9565b610295600480360360208110156103c657600080fd5b50356108c2565b600060208190529081526040902080546001909101546001600160a01b031682565b6000806103fa611054565b50505060008281526001602081815260408084206001600160a01b0386168552600601825292839020835180850190945280548085529201549201829052909250929050565b60035481565b6000606483111580156104595750600083115b61046257600080fd5b600061046e84846104c2565b6040805180820182529586526001600160a01b039485166020808801918252600084815290819052919091209551865551600190950180546001600160a01b03191695909416949094179092555090919050565b6040805160208082019490945260609290921b6bffffffffffffffffffffffff1916828201528051808303603401815260549092019052805191012090565b60016020819052600091825260409091208054918101546002820154600383015460049093015460ff8316936101009093046001600160a01b0316929086565b600084815260016020819052604082200154859060ff1661056157600080fd5b600086815260016020526040902061057761106e565b506003810154600090815260208181526040808320815180830190925280548252600101546001600160a01b03169181018290529190156105db5781602001516001600160a01b0316336001600160a01b0316146105d457600080fd5b50846105de565b50335b6105ea89828a8a6108f4565b9998505050505050505050565b6000600a9091565b600190565b60008381526020819052604081205461061c57600080fd5b60008511801561062d5750600a8511155b61063657600080fd5b600354604080513060601b602080830191909152603480830185905283518084039091018152605490920190925280519101209061067b90600163ffffffff610b5f16565b600355610686611085565b606081810188815260808301888152336040808601828152815192861b602084810191909152958a901b6bffffffffffffffffffffffff191660348401528151808403602801815260489093018252825192860192909220865260018587018181526000898152828852838120895180825592519381018054965160ff1990971694151594909417610100600160a81b0319166101006001600160a01b03978816021790935595516002808401919091559451600383015560a0880151600490920191909155845291909352902054166107b7576001600160a01b03841661078d578051600090815260026020526040902080546001600160a01b031916331790556107b7565b8051600090815260026020526040902080546001600160a01b0319166001600160a01b0386161790555b80516000908152600260209081526040918290205482518a8152339281019290925281830189905291516001600160a01b039092169184917f75b4ff136cc5de5957574c797de3334eb1c141271922b825eb071e0487ba2c5c919081900360600190a35095945050505050565b600a81565b60008181526001602081905260409091200154819060ff1661084a57600080fd5b6108548233610bc0565b5050565b60009081526001602052604090206002015490565b60009182526001602090815260408084209284526005909201905290205490565b6002602052600090815260409020546001600160a01b031681565b6000908152600160208190526040909120015460ff1690565b600081815260016020819052604082200154829060ff166108e257600080fd5b6108eb83610cc5565b91505b50919050565b6000848152600160205260408120600281015484111561091357600080fd5b600181015460408051634ac41bc760e11b81526001600160a01b038881166004830152602482018a90529151600093610100900490921691639588378e91604480820192602092909190829003018186803b15801561097157600080fd5b505afa158015610985573d6000803e3d6000fd5b505050506040513d602081101561099b57600080fd5b50519050806109f1576040805162461bcd60e51b815260206004820152601b60248201527f5f766f746572206d75737420686176652072657075746174696f6e0000000000604482015290519081900360640190fd5b838110156109fe57600080fd5b8380610a075750805b6001600160a01b038716600090815260068401602052604090206001015415610a3457610a348888610bc0565b6000868152600584016020526040902054610a5690829063ffffffff610b5f16565b60008781526005850160205260409020556004830154610a7d90829063ffffffff610b5f16565b600484015560408051808201825287815260208082018481526001600160a01b03808c16600081815260068a0185528681209551865592516001909501949094558754825260028352908490205484518b8152928301869052845193949116928c927f066c061a3792cb3eb64a441a928655fcbafb4a54b49725fe9cd2951df5e7189e92908290030190a4604080516001600160a01b0389163314158152905189917fe715e19c865cb724f3c292cc2fffc24d9cdd398e179fb366f008cc73028e1c52919081900360200190a2610b5388610cc5565b98975050505050505050565b600082820183811015610bb9576040805162461bcd60e51b815260206004820152601b60248201527f536166654d6174683a206164646974696f6e206f766572666c6f770000000000604482015290519081900360640190fd5b9392505050565b6000828152600160205260409020610bd6611054565b506001600160a01b03821660009081526006820160209081526040808320815180830183528154808252600190920154818501819052918552600586019093529220549091610c2b919063ffffffff610f0d16565b815160009081526005840160209081526040909120919091558101516004830154610c5b9163ffffffff610f0d16565b60048301556001600160a01b03808416600081815260068501602090815260408083208381556001018390558654835260029091528082205490519293169187917f0ecab23267930de581498fac1af19a95c888ec6583921ee9c47473e16245d3c891a450505050565b600081815260016020819052604082200154829060ff16610ce557600080fd5b600083815260016020818152604080842092830154815163b551c37360e01b81526004810189905291519394936101009091046001600160a01b03169263b551c3739260248082019391829003018186803b158015610d4357600080fd5b505afa158015610d57573d6000803e3d6000fd5b505050506040513d6020811015610d6d57600080fd5b505160038301546000908152602081905260408120549192505b83600201548111610f005760008181526005850160205260409020546064840483021015610ef857610db7611085565b506040805160c08101825285548152600186015460ff81161515602083015261010090046001600160a01b0316918101919091526002850154606082015260038501546080820152600485015460a0820152610e1288610f4f565b805160009081526002602090815260409182902054825185815291820187905282516001600160a01b03909116928b927f37471b9c9d295ffb1309ad070b8964700bfb7b555e8e8292d0b6cbc7dba35d10929081900390910190a380604001516001600160a01b0316639d4c162d89846040518363ffffffff1660e01b81526004018083815260200182815260200192505050602060405180830381600087803b158015610ebf57600080fd5b505af1158015610ed3573d6000803e3d6000fd5b505050506040513d6020811015610ee957600080fd5b505196506108ee945050505050565b600101610d87565b5060009695505050505050565b6000610bb983836040518060400160405280601e81526020017f536166654d6174683a207375627472616374696f6e206f766572666c6f770000815250610fbd565b6000818152600160205260408120905b81600201548111610f83576000818152600583016020526040812055600101610f5f565b50506000908152600160208190526040822082815590810180546001600160a81b0319169055600281018290556003810182905560040155565b6000818484111561104c5760405162461bcd60e51b81526004018080602001828103825283818151815260200191508051906020019080838360005b83811015611011578181015183820152602001610ff9565b50505050905090810190601f16801561103e5780820380516001836020036101000a031916815260200191505b509250505060405180910390fd5b505050900390565b604051806040016040528060008152602001600081525090565b604080518082019091526000808252602082015290565b6040805160c081018252600080825260208201819052918101829052606081018290526080810182905260a08101919091529056fea265627a7a72315820a63e681989e28e9aab1ab5268b8ff34482bcaa99ce90e353a783f3cfd712695e64736f6c634300050d0032",
  "source": "pragma solidity ^0.5.11;\n\nimport \"../Reputation.sol\";\nimport \"./IntVoteInterface.sol\";\nimport \"openzeppelin-solidity/contracts/math/SafeMath.sol\";\nimport \"./VotingMachineCallbacksInterface.sol\";\nimport \"./ProposalExecuteInterface.sol\";\n\n\ncontract AbsoluteVote is IntVoteInterface {\n    using SafeMath for uint;\n\n    struct Parameters {\n        uint256 precReq; // how many percentages required for the proposal to be passed\n        address voteOnBehalf; //if this address is set so only this address is allowed\n                              // to vote of behalf of someone else.\n    }\n\n    struct Voter {\n        uint256 vote; // 0 - 'abstain'\n        uint256 reputation; // amount of voter's reputation\n    }\n\n    struct Proposal {\n        bytes32 organizationId; // the organization Id\n        bool open; // voting open flag\n        address callbacks;\n        uint256 numOfChoices;\n        bytes32 paramsHash; // the hash of the parameters of the proposal\n        uint256 totalVotes;\n        mapping(uint=>uint) votes;\n        mapping(address=>Voter) voters;\n    }\n\n    event AVVoteProposal(bytes32 indexed _proposalId, bool _isProxyVote);\n\n    mapping(bytes32=>Parameters) public parameters;  // A mapping from hashes to parameters\n    mapping(bytes32=>Proposal) public proposals; // Mapping from the ID of the proposal to the proposal itself.\n    mapping(bytes32=>address) public organizations;\n\n    uint256 public constant MAX_NUM_OF_CHOICES = 10;\n    uint256 public proposalsCnt; // Total amount of proposals\n\n  /**\n   * @dev Check that the proposal is votable (open and not executed yet)\n   */\n    modifier votable(bytes32 _proposalId) {\n        require(proposals[_proposalId].open);\n        _;\n    }\n\n    /**\n     * @dev register a new proposal with the given parameters. Every proposal has a unique ID which is being\n     * generated by calculating keccak256 of a incremented counter.\n     * @param _numOfChoices number of voting choices\n     * @param _paramsHash defined the parameters of the voting machine used for this proposal\n     * @param _organization address\n     * @return proposal's id.\n     */\n    function propose(uint256 _numOfChoices, bytes32 _paramsHash, address, address _organization)\n        external\n        returns(bytes32)\n    {\n        // Check valid params and number of choices:\n        require(parameters[_paramsHash].precReq > 0);\n        require(_numOfChoices > 0 && _numOfChoices <= MAX_NUM_OF_CHOICES);\n        // Generate a unique ID:\n        bytes32 proposalId = keccak256(abi.encodePacked(this, proposalsCnt));\n        proposalsCnt = proposalsCnt.add(1);\n        // Open proposal:\n        Proposal memory proposal;\n        proposal.numOfChoices = _numOfChoices;\n        proposal.paramsHash = _paramsHash;\n        proposal.callbacks = msg.sender;\n        proposal.organizationId = keccak256(abi.encodePacked(msg.sender, _organization));\n        proposal.open = true;\n        proposals[proposalId] = proposal;\n        if (organizations[proposal.organizationId] == address(0)) {\n            if (_organization == address(0)) {\n                organizations[proposal.organizationId] = msg.sender;\n            } else {\n                organizations[proposal.organizationId] = _organization;\n            }\n        }\n        emit NewProposal(proposalId, organizations[proposal.organizationId], _numOfChoices, msg.sender, _paramsHash);\n        return proposalId;\n    }\n\n    /**\n     * @dev voting function\n     * @param _proposalId id of the proposal\n     * @param _vote a value between 0 to and the proposal number of choices.\n     * @param _amount the reputation amount to vote with . if _amount == 0 it will use all voter reputation.\n     * @param _voter voter address\n     * @return bool true - the proposal has been executed\n     *              false - otherwise.\n     */\n    function vote(\n        bytes32 _proposalId,\n        uint256 _vote,\n        uint256 _amount,\n        address _voter)\n        external\n        votable(_proposalId)\n        returns(bool)\n        {\n\n        Proposal storage proposal = proposals[_proposalId];\n        Parameters memory params = parameters[proposal.paramsHash];\n        address voter;\n        if (params.voteOnBehalf != address(0)) {\n            require(msg.sender == params.voteOnBehalf);\n            voter = _voter;\n        } else {\n            voter = msg.sender;\n        }\n        return internalVote(_proposalId, voter, _vote, _amount);\n    }\n\n  /**\n   * @dev Cancel the vote of the msg.sender: subtract the reputation amount from the votes\n   * and delete the voter from the proposal struct\n   * @param _proposalId id of the proposal\n   */\n    function cancelVote(bytes32 _proposalId) external votable(_proposalId) {\n        cancelVoteInternal(_proposalId, msg.sender);\n    }\n\n    /**\n      * @dev execute check if the proposal has been decided, and if so, execute the proposal\n      * @param _proposalId the id of the proposal\n      * @return bool true - the proposal has been executed\n      *              false - otherwise.\n     */\n    function execute(bytes32 _proposalId) external votable(_proposalId) returns(bool) {\n        return _execute(_proposalId);\n    }\n\n  /**\n   * @dev getNumberOfChoices returns the number of choices possible in this proposal\n   * excluding the abstain vote (0)\n   * @param _proposalId the ID of the proposal\n   * @return uint256 that contains number of choices\n   */\n    function getNumberOfChoices(bytes32 _proposalId) external view returns(uint256) {\n        return proposals[_proposalId].numOfChoices;\n    }\n\n  /**\n   * @dev voteInfo returns the vote and the amount of reputation of the user committed to this proposal\n   * @param _proposalId the ID of the proposal\n   * @param _voter the address of the voter\n   * @return uint256 vote - the voters vote\n   *        uint256 reputation - amount of reputation committed by _voter to _proposalId\n   */\n    function voteInfo(bytes32 _proposalId, address _voter) external view returns(uint, uint) {\n        Voter memory voter = proposals[_proposalId].voters[_voter];\n        return (voter.vote, voter.reputation);\n    }\n\n    /**\n     * @dev voteStatus returns the reputation voted for a proposal for a specific voting choice.\n     * @param _proposalId the ID of the proposal\n     * @param _choice the index in the\n     * @return voted reputation for the given choice\n     */\n    function voteStatus(bytes32 _proposalId, uint256 _choice) external view returns(uint256) {\n        return proposals[_proposalId].votes[_choice];\n    }\n\n    /**\n      * @dev isVotable check if the proposal is votable\n      * @param _proposalId the ID of the proposal\n      * @return bool true or false\n    */\n    function isVotable(bytes32 _proposalId) external view returns(bool) {\n        return  proposals[_proposalId].open;\n    }\n\n    /**\n     * @dev isAbstainAllow returns if the voting machine allow abstain (0)\n     * @return bool true or false\n     */\n    function isAbstainAllow() external pure returns(bool) {\n        return true;\n    }\n\n    /**\n     * @dev getAllowedRangeOfChoices returns the allowed range of choices for a voting machine.\n     * @return min - minimum number of choices\n               max - maximum number of choices\n     */\n    function getAllowedRangeOfChoices() external pure returns(uint256 min, uint256 max) {\n        return (0, MAX_NUM_OF_CHOICES);\n    }\n\n    /**\n     * @dev hash the parameters, save them if necessary, and return the hash value\n    */\n    function setParameters(uint256 _precReq, address _voteOnBehalf) public returns(bytes32) {\n        require(_precReq <= 100 && _precReq > 0);\n        bytes32 hashedParameters = getParametersHash(_precReq, _voteOnBehalf);\n        parameters[hashedParameters] = Parameters({\n            precReq: _precReq,\n            voteOnBehalf: _voteOnBehalf\n        });\n        return hashedParameters;\n    }\n\n    /**\n     * @dev hashParameters returns a hash of the given parameters\n     */\n    function getParametersHash(uint256 _precReq, address _voteOnBehalf) public pure returns(bytes32) {\n        return keccak256(abi.encodePacked(_precReq, _voteOnBehalf));\n    }\n\n    function cancelVoteInternal(bytes32 _proposalId, address _voter) internal {\n        Proposal storage proposal = proposals[_proposalId];\n        Voter memory voter = proposal.voters[_voter];\n        proposal.votes[voter.vote] = (proposal.votes[voter.vote]).sub(voter.reputation);\n        proposal.totalVotes = (proposal.totalVotes).sub(voter.reputation);\n        delete proposal.voters[_voter];\n        emit CancelVoting(_proposalId, organizations[proposal.organizationId], _voter);\n    }\n\n    function deleteProposal(bytes32 _proposalId) internal {\n        Proposal storage proposal = proposals[_proposalId];\n        for (uint256 cnt = 0; cnt <= proposal.numOfChoices; cnt++) {\n            delete proposal.votes[cnt];\n        }\n        delete proposals[_proposalId];\n    }\n\n    /**\n      * @dev execute check if the proposal has been decided, and if so, execute the proposal\n      * @param _proposalId the id of the proposal\n      * @return bool true - the proposal has been executed\n      *              false - otherwise.\n     */\n    function _execute(bytes32 _proposalId) internal votable(_proposalId) returns(bool) {\n        Proposal storage proposal = proposals[_proposalId];\n        uint256 totalReputation =\n        VotingMachineCallbacksInterface(proposal.callbacks).getTotalReputationSupply(_proposalId);\n        uint256 precReq = parameters[proposal.paramsHash].precReq;\n        // Check if someone crossed the bar:\n        for (uint256 cnt = 0; cnt <= proposal.numOfChoices; cnt++) {\n            if (proposal.votes[cnt] > (totalReputation/100)*precReq) {\n                Proposal memory tmpProposal = proposal;\n                deleteProposal(_proposalId);\n                emit ExecuteProposal(_proposalId, organizations[tmpProposal.organizationId], cnt, totalReputation);\n                return ProposalExecuteInterface(tmpProposal.callbacks).executeProposal(_proposalId, int(cnt));\n            }\n        }\n        return false;\n    }\n\n    /**\n     * @dev Vote for a proposal, if the voter already voted, cancel the last vote and set a new one instead\n     * @param _proposalId id of the proposal\n     * @param _voter used in case the vote is cast for someone else\n     * @param _vote a value between 0 to and the proposal's number of choices.\n     * @return true in case of proposal execution otherwise false\n     * throws if proposal is not open or if it has been executed\n     * NB: executes the proposal if a decision has been reached\n     */\n    function internalVote(bytes32 _proposalId, address _voter, uint256 _vote, uint256 _rep) internal returns(bool) {\n        Proposal storage proposal = proposals[_proposalId];\n        // Check valid vote:\n        require(_vote <= proposal.numOfChoices);\n        // Check voter has enough reputation:\n        uint256 reputation = VotingMachineCallbacksInterface(proposal.callbacks).reputationOf(_voter, _proposalId);\n        require(reputation > 0, \"_voter must have reputation\");\n        require(reputation >= _rep);\n        uint256 rep = _rep;\n        if (rep == 0) {\n            rep = reputation;\n        }\n        // If this voter has already voted, first cancel the vote:\n        if (proposal.voters[_voter].reputation != 0) {\n            cancelVoteInternal(_proposalId, _voter);\n        }\n        // The voting itself:\n        proposal.votes[_vote] = rep.add(proposal.votes[_vote]);\n        proposal.totalVotes = rep.add(proposal.totalVotes);\n        proposal.voters[_voter] = Voter({\n            reputation: rep,\n            vote: _vote\n        });\n        // Event:\n        emit VoteProposal(_proposalId, organizations[proposal.organizationId], _voter, _vote, rep);\n        emit AVVoteProposal(_proposalId, (_voter != msg.sender));\n        // execute the proposal if this vote was decisive:\n        return _execute(_proposalId);\n    }\n}\n",
  "sourcePath": "@daostack/infra/contracts/votingMachines/AbsoluteVote.sol",
  "compiler": {
    "name": "solc",
    "version": "0.5.13+commit.5b0b510c.Emscripten.clang"
  },
  "schemaVersion": "3.0.20",
  "updatedAt": "2020-01-23T11:28:49.031Z",
  "devdoc": {
    "methods": {
      "cancelVote(bytes32)": {
        "details": "Cancel the vote of the msg.sender: subtract the reputation amount from the votes and delete the voter from the proposal struct",
        "params": {
          "_proposalId": "id of the proposal"
        }
      },
      "execute(bytes32)": {
        "details": "execute check if the proposal has been decided, and if so, execute the proposal",
        "params": {
          "_proposalId": "the id of the proposal"
        },
        "return": "bool true - the proposal has been executed             false - otherwise."
      },
      "getAllowedRangeOfChoices()": {
        "details": "getAllowedRangeOfChoices returns the allowed range of choices for a voting machine.",
        "return": "min - minimum number of choices max - maximum number of choices"
      },
      "getNumberOfChoices(bytes32)": {
        "details": "getNumberOfChoices returns the number of choices possible in this proposal excluding the abstain vote (0)",
        "params": {
          "_proposalId": "the ID of the proposal"
        },
        "return": "uint256 that contains number of choices"
      },
      "getParametersHash(uint256,address)": {
        "details": "hashParameters returns a hash of the given parameters"
      },
      "isAbstainAllow()": {
        "details": "isAbstainAllow returns if the voting machine allow abstain (0)",
        "return": "bool true or false"
      },
      "isVotable(bytes32)": {
        "details": "isVotable check if the proposal is votable",
        "params": {
          "_proposalId": "the ID of the proposal"
        },
        "return": "bool true or false"
      },
      "propose(uint256,bytes32,address,address)": {
        "details": "register a new proposal with the given parameters. Every proposal has a unique ID which is being generated by calculating keccak256 of a incremented counter.",
        "params": {
          "_numOfChoices": "number of voting choices",
          "_organization": "address",
          "_paramsHash": "defined the parameters of the voting machine used for this proposal"
        },
        "return": "proposal's id."
      },
      "setParameters(uint256,address)": {
        "details": "hash the parameters, save them if necessary, and return the hash value"
      },
      "vote(bytes32,uint256,uint256,address)": {
        "details": "voting function",
        "params": {
          "_amount": "the reputation amount to vote with . if _amount == 0 it will use all voter reputation.",
          "_proposalId": "id of the proposal",
          "_vote": "a value between 0 to and the proposal number of choices.",
          "_voter": "voter address"
        },
        "return": "bool true - the proposal has been executed             false - otherwise."
      },
      "voteInfo(bytes32,address)": {
        "details": "voteInfo returns the vote and the amount of reputation of the user committed to this proposal",
        "params": {
          "_proposalId": "the ID of the proposal",
          "_voter": "the address of the voter"
        },
        "return": "uint256 vote - the voters vote       uint256 reputation - amount of reputation committed by _voter to _proposalId"
      },
      "voteStatus(bytes32,uint256)": {
        "details": "voteStatus returns the reputation voted for a proposal for a specific voting choice.",
        "params": {
          "_choice": "the index in the",
          "_proposalId": "the ID of the proposal"
        },
        "return": "voted reputation for the given choice"
      }
    }
  },
  "userdoc": {
    "methods": {}
  }
}