{
  "contractName": "Competition",
  "abi": [
    {
      "anonymous": false,
      "inputs": [
        {
          "indexed": true,
          "internalType": "bytes32",
          "name": "_proposalId",
          "type": "bytes32"
        },
        {
          "indexed": false,
          "internalType": "uint256",
          "name": "_numberOfWinners",
          "type": "uint256"
        },
        {
          "indexed": false,
          "internalType": "uint256[]",
          "name": "_rewardSplit",
          "type": "uint256[]"
        },
        {
          "indexed": false,
          "internalType": "uint256",
          "name": "_startTime",
          "type": "uint256"
        },
        {
          "indexed": false,
          "internalType": "uint256",
          "name": "_votingStartTime",
          "type": "uint256"
        },
        {
          "indexed": false,
          "internalType": "uint256",
          "name": "_suggestionsEndTime",
          "type": "uint256"
        },
        {
          "indexed": false,
          "internalType": "uint256",
          "name": "_endTime",
          "type": "uint256"
        },
        {
          "indexed": false,
          "internalType": "uint256",
          "name": "_maxNumberOfVotesPerVoter",
          "type": "uint256"
        },
        {
          "indexed": false,
          "internalType": "address payable",
          "name": "_contributionRewardExt",
          "type": "address"
        },
        {
          "indexed": false,
          "internalType": "address",
          "name": "_admin",
          "type": "address"
        }
      ],
      "name": "NewCompetitionProposal",
      "type": "event"
    },
    {
      "anonymous": false,
      "inputs": [
        {
          "indexed": true,
          "internalType": "bytes32",
          "name": "_proposalId",
          "type": "bytes32"
        },
        {
          "indexed": true,
          "internalType": "uint256",
          "name": "_suggestionId",
          "type": "uint256"
        },
        {
          "indexed": false,
          "internalType": "string",
          "name": "_descriptionHash",
          "type": "string"
        },
        {
          "indexed": true,
          "internalType": "address payable",
          "name": "_beneficiary",
          "type": "address"
        }
      ],
      "name": "NewSuggestion",
      "type": "event"
    },
    {
      "anonymous": false,
      "inputs": [
        {
          "indexed": true,
          "internalType": "bytes32",
          "name": "_proposalId",
          "type": "bytes32"
        },
        {
          "indexed": true,
          "internalType": "uint256",
          "name": "_suggestionId",
          "type": "uint256"
        },
        {
          "indexed": true,
          "internalType": "address",
          "name": "_voter",
          "type": "address"
        },
        {
          "indexed": false,
          "internalType": "uint256",
          "name": "_reputation",
          "type": "uint256"
        }
      ],
      "name": "NewVote",
      "type": "event"
    },
    {
      "anonymous": false,
      "inputs": [
        {
          "indexed": true,
          "internalType": "bytes32",
          "name": "_proposalId",
          "type": "bytes32"
        },
        {
          "indexed": true,
          "internalType": "uint256",
          "name": "_suggestionId",
          "type": "uint256"
        },
        {
          "indexed": false,
          "internalType": "uint256",
          "name": "_rewardPercentage",
          "type": "uint256"
        }
      ],
      "name": "Redeem",
      "type": "event"
    },
    {
      "anonymous": false,
      "inputs": [
        {
          "indexed": true,
          "internalType": "bytes32",
          "name": "_proposalId",
          "type": "bytes32"
        },
        {
          "indexed": false,
          "internalType": "uint256",
          "name": "_snapshotBlock",
          "type": "uint256"
        }
      ],
      "name": "SnapshotBlock",
      "type": "event"
    },
    {
      "constant": true,
      "inputs": [],
      "name": "MAX_NUMBER_OF_WINNERS",
      "outputs": [
        {
          "internalType": "uint256",
          "name": "",
          "type": "uint256"
        }
      ],
      "payable": false,
      "stateMutability": "view",
      "type": "function"
    },
    {
      "constant": true,
      "inputs": [],
      "name": "contributionRewardExt",
      "outputs": [
        {
          "internalType": "address payable",
          "name": "",
          "type": "address"
        }
      ],
      "payable": false,
      "stateMutability": "view",
      "type": "function"
    },
    {
      "constant": true,
      "inputs": [
        {
          "internalType": "bytes32",
          "name": "",
          "type": "bytes32"
        }
      ],
      "name": "proposals",
      "outputs": [
        {
          "internalType": "uint256",
          "name": "numberOfWinners",
          "type": "uint256"
        },
        {
          "internalType": "uint256",
          "name": "startTime",
          "type": "uint256"
        },
        {
          "internalType": "uint256",
          "name": "votingStartTime",
          "type": "uint256"
        },
        {
          "internalType": "uint256",
          "name": "suggestionsEndTime",
          "type": "uint256"
        },
        {
          "internalType": "uint256",
          "name": "endTime",
          "type": "uint256"
        },
        {
          "internalType": "uint256",
          "name": "maxNumberOfVotesPerVoter",
          "type": "uint256"
        },
        {
          "internalType": "address payable",
          "name": "contributionRewardExt",
          "type": "address"
        },
        {
          "internalType": "uint256",
          "name": "snapshotBlock",
          "type": "uint256"
        },
        {
          "internalType": "uint256",
          "name": "reputationReward",
          "type": "uint256"
        },
        {
          "internalType": "uint256",
          "name": "ethReward",
          "type": "uint256"
        },
        {
          "internalType": "uint256",
          "name": "nativeTokenReward",
          "type": "uint256"
        },
        {
          "internalType": "uint256",
          "name": "externalTokenReward",
          "type": "uint256"
        },
        {
          "internalType": "address",
          "name": "admin",
          "type": "address"
        }
      ],
      "payable": false,
      "stateMutability": "view",
      "type": "function"
    },
    {
      "constant": true,
      "inputs": [
        {
          "internalType": "uint256",
          "name": "",
          "type": "uint256"
        }
      ],
      "name": "suggestions",
      "outputs": [
        {
          "internalType": "uint256",
          "name": "totalVotes",
          "type": "uint256"
        },
        {
          "internalType": "bytes32",
          "name": "proposalId",
          "type": "bytes32"
        },
        {
          "internalType": "address payable",
          "name": "beneficiary",
          "type": "address"
        }
      ],
      "payable": false,
      "stateMutability": "view",
      "type": "function"
    },
    {
      "constant": true,
      "inputs": [],
      "name": "suggestionsCounter",
      "outputs": [
        {
          "internalType": "uint256",
          "name": "",
          "type": "uint256"
        }
      ],
      "payable": false,
      "stateMutability": "view",
      "type": "function"
    },
    {
      "constant": false,
      "inputs": [
        {
          "internalType": "address payable",
          "name": "_contributionRewardExt",
          "type": "address"
        }
      ],
      "name": "initialize",
      "outputs": [],
      "payable": false,
      "stateMutability": "nonpayable",
      "type": "function"
    },
    {
      "constant": false,
      "inputs": [
        {
          "internalType": "string",
          "name": "_descriptionHash",
          "type": "string"
        },
        {
          "internalType": "int256",
          "name": "_reputationChange",
          "type": "int256"
        },
        {
          "internalType": "uint256[3]",
          "name": "_rewards",
          "type": "uint256[3]"
        },
        {
          "internalType": "contract IERC20",
          "name": "_externalToken",
          "type": "address"
        },
        {
          "internalType": "uint256[]",
          "name": "_rewardSplit",
          "type": "uint256[]"
        },
        {
          "internalType": "uint256[5]",
          "name": "_competitionParams",
          "type": "uint256[5]"
        },
        {
          "internalType": "bool",
          "name": "_proposerIsAdmin",
          "type": "bool"
        }
      ],
      "name": "proposeCompetition",
      "outputs": [
        {
          "internalType": "bytes32",
          "name": "proposalId",
          "type": "bytes32"
        }
      ],
      "payable": false,
      "stateMutability": "nonpayable",
      "type": "function"
    },
    {
      "constant": false,
      "inputs": [
        {
          "internalType": "bytes32",
          "name": "_proposalId",
          "type": "bytes32"
        },
        {
          "internalType": "string",
          "name": "_descriptionHash",
          "type": "string"
        },
        {
          "internalType": "address payable",
          "name": "_beneficiary",
          "type": "address"
        }
      ],
      "name": "suggest",
      "outputs": [
        {
          "internalType": "uint256",
          "name": "",
          "type": "uint256"
        }
      ],
      "payable": false,
      "stateMutability": "nonpayable",
      "type": "function"
    },
    {
      "constant": false,
      "inputs": [
        {
          "internalType": "uint256",
          "name": "_suggestionId",
          "type": "uint256"
        }
      ],
      "name": "vote",
      "outputs": [
        {
          "internalType": "bool",
          "name": "",
          "type": "bool"
        }
      ],
      "payable": false,
      "stateMutability": "nonpayable",
      "type": "function"
    },
    {
      "constant": false,
      "inputs": [
        {
          "internalType": "bytes32",
          "name": "_proposalId",
          "type": "bytes32"
        }
      ],
      "name": "setSnapshotBlock",
      "outputs": [],
      "payable": false,
      "stateMutability": "nonpayable",
      "type": "function"
    },
    {
      "constant": false,
      "inputs": [
        {
          "internalType": "bytes32",
          "name": "_proposalId",
          "type": "bytes32"
        }
      ],
      "name": "sendLeftOverFunds",
      "outputs": [],
      "payable": false,
      "stateMutability": "nonpayable",
      "type": "function"
    },
    {
      "constant": false,
      "inputs": [
        {
          "internalType": "uint256",
          "name": "_suggestionId",
          "type": "uint256"
        }
      ],
      "name": "redeem",
      "outputs": [],
      "payable": false,
      "stateMutability": "nonpayable",
      "type": "function"
    },
    {
      "constant": true,
      "inputs": [
        {
          "internalType": "uint256",
          "name": "_suggestionId",
          "type": "uint256"
        }
      ],
      "name": "getOrderedIndexOfSuggestion",
      "outputs": [
        {
          "internalType": "uint256",
          "name": "index",
          "type": "uint256"
        }
      ],
      "payable": false,
      "stateMutability": "view",
      "type": "function"
    }
  ],
  "bytecode": "0x608060405234801561001057600080fd5b50612289806100206000396000f3fe608060405234801561001057600080fd5b50600436106100cf5760003560e01c8063ae0a97391161008c578063cffc84ba11610066578063cffc84ba146103db578063d5c8cc52146103e3578063db006a75146103eb578063eba9e63314610408576100cf565b8063ae0a973914610316578063bd9317d914610335578063c4d66de8146103b5576100cf565b80630121b93f146100d4578063302a2a461461010557806332ed5b1214610149578063516b9d37146101e0578063a65cd35a146102d5578063ab4c981c146102f9575b600080fd5b6100f1600480360360208110156100ea57600080fd5b5035610425565b604080519115158252519081900360200190f35b6101226004803603602081101561011b57600080fd5b503561088f565b6040805193845260208401929092526001600160a01b031682820152519081900360600190f35b6101666004803603602081101561015f57600080fd5b50356108b8565b604080519d8e5260208e019c909c528c8c019a909a5260608c019890985260808b019690965260a08a01949094526001600160a01b0392831660c08a015260e08901919091526101008801526101208701919091526101408601919091526101608501919091521661018083015251908190036101a00190f35b6102c360048036036101a08110156101f757600080fd5b81019060208101813564010000000081111561021257600080fd5b82018360208201111561022457600080fd5b8035906020019184600183028401116401000000008311171561024657600080fd5b9193909282359260208101926001600160a01b0360808301351692909160c081019060a0013564010000000081111561027e57600080fd5b82018360208201111561029057600080fd5b803590602001918460208302840111640100000000831117156102b257600080fd5b919350915060a0810135151561092a565b60408051918252519081900360200190f35b6102dd610e4c565b604080516001600160a01b039092168252519081900360200190f35b6102c36004803603602081101561030f57600080fd5b5035610e5b565b6103336004803603602081101561032c57600080fd5b5035610f7e565b005b6102c36004803603606081101561034b57600080fd5b8135919081019060408101602082013564010000000081111561036d57600080fd5b82018360208201111561037f57600080fd5b803590602001918460018302840111640100000000831117156103a157600080fd5b9193509150356001600160a01b0316611343565b610333600480360360208110156103cb57600080fd5b50356001600160a01b0316611566565b6102c361162b565b6102c3611631565b6103336004803603602081101561040157600080fd5b5035611636565b6103336004803603602081101561041e57600080fd5b5035611b2a565b60008181526001602081905260408220015480610485576040805162461bcd60e51b81526020600482015260196024820152781cdd59d9d95cdd1a5bdb88191bd95cc81b9bdd08195e1a5cdd603a1b604482015290519081900360640190fd5b61048e81611b2a565b60035460408051632d77bef360e11b815290516000926001600160a01b031691635aef7de6916004808301926020929190829003018186803b1580156104d357600080fd5b505afa1580156104e7573d6000803e3d6000fd5b505050506040513d60208110156104fd57600080fd5b50516040805163089ae1c960e41b815290519192506000916001600160a01b038416916389ae1c90916004808301926020929190829003018186803b15801561054557600080fd5b505afa158015610559573d6000803e3d6000fd5b505050506040513d602081101561056f57600080fd5b50516000848152602081815260409182902060080154825163277166bf60e11b8152336004820152602481019190915291516001600160a01b0390931692634ee2cd7e926044808201939291829003018186803b1580156105cf57600080fd5b505afa1580156105e3573d6000803e3d6000fd5b505050506040513d60208110156105f957600080fd5b50519050806106395760405162461bcd60e51b815260040180806020018281038252602f81526020018061207c602f913960400191505060405180910390fd5b600083815260208190526040902060058101544210610693576040805162461bcd60e51b815260206004820152601160248201527018dbdb5c195d1a5d1a5bdb88195b991959607a1b604482015290519081900360640190fd5b6000868152600160209081526040808320338452600381019092529091205415610704576040805162461bcd60e51b815260206004820181905260248201527f616c726561647920766f746564206f6e20746869732073756767657374696f6e604482015290519081900360640190fd5b60068201543360009081526010840160205260409020541061076d576040805162461bcd60e51b815260206004820152601e60248201527f657863656564206e756d626572206f6620766f74657320616c6c6f7765640000604482015290519081900360640190fd5b33600090815260108301602052604090205461079090600163ffffffff611bf416565b3360009081526010840160205260409020558054156107e15780546000908152600f830160205260409020546107cd90600163ffffffff611c5716565b81546000908152600f840160205260409020555b80546107f3908463ffffffff611bf416565b8082556000908152600f8301602052604090205461081890600163ffffffff611bf416565b81546000908152600f84016020908152604080832093909355338252600384019052208390556108488588611c99565b6040805184815290513391899188917fd7d2b1fb5e87b2ff063bc53d745b1f45a5cdbb2f9b277888d590021844fd483e919081900360200190a45060019695505050505050565b60016020819052600091825260409091208054918101546002909101546001600160a01b031683565b6000602081905290815260409020805460028201546003830154600484015460058501546006860154600787015460088801546009890154600a8a0154600b8b0154600c8c0154600e909c01549a9b999a98999798969795966001600160a01b0395861696949593949293919291168d565b6000838335806109375750425b428110156109765760405162461bcd60e51b815260040180806020018281038252602f8152602001806120cf602f913960400191505060405180910390fd5b60648211156109b65760405162461bcd60e51b815260040180806020018281038252602a81526020018061222b602a913960400191505060405180910390fd5b60408501356020860135106109fc5760405162461bcd60e51b81526004018080602001828103825260278152602001806121a06027913960400191505060405180910390fd5b6020850135811115610a3f5760405162461bcd60e51b81526004018080602001828103825260298152602001806121c76029913960400191505060405180910390fd5b6060850135610a7f5760405162461bcd60e51b815260040180806020018281038252603181526020018061202a6031913960400191505060405180910390fd5b604085013560808601351115610ac65760405162461bcd60e51b815260040180806020018281038252603b8152602001806121f0603b913960400191505060405180910390fd5b60808501358110610b085760405162461bcd60e51b815260040180806020018281038252603b815260200180612144603b913960400191505060405180910390fd5b6000805b83811015610b4357610b39898983818110610b2357fe5b9050602002013583611bf490919063ffffffff16565b9150600101610b0c565b5080606414610b99576040805162461bcd60e51b815260206004820152601f60248201527f746f74616c20726577617264732073706c6974206973206e6f74203130302500604482015290519081900360640190fd5b6003546040516310ca123760e21b8152602481018d90526001600160a01b039091169063432848dc908f908f908f908f908f908790339060048101908190604401866060808284376000838201526001600160a01b03808916601f909201601f19169093019081528683166020820152918516604083015250828103606090810183528101899052608001898980828437600081840152601f19601f82011690508083019250505098505050505050505050602060405180830381600087803b158015610c6557600080fd5b505af1158015610c79573d6000803e3d6000fd5b505050506040513d6020811015610c8f57600080fd5b50516000818152602081905260409020848155909450610cb3906001018989611fc1565b5060008481526020818152604091829020600281018590558882013560038201558883013560058201556060890135600682015560808901356004820155600981018e90558c35600b820155908c0135600a820155908b0135600c909101558415610d3a576000848152602081905260409020600e0180546001600160a01b031916331790555b600084815260208181526040918290206003808201546004830154600584015460068501549354600e86015488518c81529889018b9052606089018590526080890184905260a0890183905260c089018690526001600160a01b0391821660e08a018190529116610100890181905261012097890188815260019097018054988a018990528d997fcf5b519fd1c8161005ac36adf44ad5e13159b7931b236d11507e30cb053c20f0998e9992988e98979695909490939092916101408301908b908015610e2657602002820191906000526020600020905b815481526020019060010190808311610e12575b50509a505050505050505050505060405180910390a25050509998505050505050505050565b6003546001600160a01b031681565b60008181526001602081905260408220015480610ebb576040805162461bcd60e51b81526020600482015260196024820152781cdd59d9d95cdd1a5bdb88191bd95cc81b9bdd08195e1a5cdd603a1b604482015290519081900360640190fd5b60008181526020818152604091829020600d01805483518184028101840190945280845260609392830182828015610f1257602002820191906000526020600020905b815481526020019060010190808311610efe575b5050505050905060005b8151811015610f765760008581526001602081905260408220548451909290859085908110610f4757fe5b60200260200101518152602001908152602001600020600001541115610f6e576001909301925b600101610f1c565b505050919050565b6000818152602081905260409020600501544211610fdd576040805162461bcd60e51b815260206004820152601760248201527631b7b6b832ba34ba34b7b71034b99039ba34b6361037b760491b604482015290519081900360640190fd5b60008181526020818152604091829020600d0180548351818402810184019094528084526060939283018282801561103457602002820191906000526020600020905b815481526020019060010190808311611020575b5050505050905060005b81518110156110cd5760006001600160a01b03166001600084848151811061106257fe5b6020908102919091018101518252810191909152604001600020600201546001600160a01b0316146110c55760405162461bcd60e51b81526004018080602001828103825260248152602001806120fe6024913960400191505060405180910390fd5b60010161103e565b506003546040805163d8145e2d60e01b8152600481018590529051600092839283926001600160a01b039092169163d8145e2d9160248082019261016092909190829003018186803b15801561112257600080fd5b505afa158015611136573d6000803e3d6000fd5b505050506040513d61016081101561114d57600080fd5b5060c08101516101008201516101209092015160035460408051632d77bef360e11b815290519397509395509093506000926001600160a01b0390911691635aef7de691600480820192602092909190829003018186803b1580156111b157600080fd5b505afa1580156111c5573d6000803e3d6000fd5b505050506040513d60208110156111db57600080fd5b505160035460408051636f4d4abd60e11b8152600481018a90526001600160a01b03808516602483015260448201879052915193945091169163de9a957a9160648082019260009290919082900301818387803b15801561123b57600080fd5b505af115801561124f573d6000803e3d6000fd5b50506003546040805163156460d960e11b8152600481018b90526001600160a01b038681166024830152604482018990529151919092169350632ac8c1b29250606480830192600092919082900301818387803b1580156112af57600080fd5b505af11580156112c3573d6000803e3d6000fd5b505060035460408051630dd14c3160e31b8152600481018b90526001600160a01b038681166024830152604482018a90529151919092169350636e8a61889250606480830192600092919082900301818387803b15801561132357600080fd5b505af1158015611337573d6000803e3d6000fd5b50505050505050505050565b6000848152602081905260408120600e01546001600160a01b0316156113ca576000858152602081905260409020600e01546001600160a01b031633146113ca576040805162461bcd60e51b81526020600482015260166024820152751bdb9b1e4818591b5a5b8818d85b881cdd59d9d95cdd60521b604482015290519081900360640190fd5b600085815260208190526040902060020154421015611430576040805162461bcd60e51b815260206004820152601b60248201527f636f6d7065746974696f6e206e6f742073746172746564207965740000000000604482015290519081900360640190fd5b600085815260208190526040902060040154421061147f5760405162461bcd60e51b81526004018080602001828103825260228152602001806121226022913960400191505060405180910390fd5b60025461149390600163ffffffff611bf416565b600281905560009081526001602081905260408220018690556001600160a01b0383166114c15750336114c4565b50815b60028054600090815260016020908152604091829020830180546001600160a01b0319166001600160a01b038616908117909155925482518281529182018890529189917fd49d50e437830c78dfc56d998083bd2d5280b983038730ff7ca14c6a329dc549918a918a9181908101848480828437600083820152604051601f909101601f19169092018290039550909350505050a45050600254949350505050565b6003546001600160a01b0316156115c4576040805162461bcd60e51b815260206004820152601b60248201527f63616e2062652063616c6c6564206f6e6c79206f6e652074696d650000000000604482015290519081900360640190fd5b6001600160a01b0381166116095760405162461bcd60e51b81526004018080602001828103825260248152602001806120ab6024913960400191505060405180910390fd5b600380546001600160a01b0319166001600160a01b0392909216919091179055565b60025481565b606481565b600081815260016020818152604080842090920154808452908390529120600581015442116116a6576040805162461bcd60e51b815260206004820152601760248201527631b7b6b832ba34ba34b7b71034b99039ba34b6361037b760491b604482015290519081900360640190fd5b6000838152600160205260409020600201546001600160a01b0316611712576040805162461bcd60e51b815260206004820152601f60248201527f73756767657374696f6e2077617320616c72656164792072656465656d656400604482015290519081900360640190fd5b6000838152600160205260408120600201546001600160a01b03169061173785610e5b565b600d840154909150811061177c5760405162461bcd60e51b815260040180806020018281038252602181526020018061205b6021913960400191505060405180910390fd5b60008581526001602090815260408083206002810180546001600160a01b0319169055548352600f8601909152812054825b818401811080156117bf5750855481105b156117fa576117f08660010182815481106117d657fe5b906000526020600020015484611bf490919063ffffffff16565b92506001016117ae565b61180a838363ffffffff611e2a16565b8654600d880154919450600091101561189157600d87015491505b86548210156118675761185a87600101838154811061184057fe5b906000526020600020015482611bf490919063ffffffff16565b6001909201919050611825565b600d87015461188e9061188190839063ffffffff611e2a16565b859063ffffffff611bf416565b93505b60006118bb60646118af878b600c0154611e6c90919063ffffffff16565b9063ffffffff611e2a16565b60035460408051636f4d4abd60e11b8152600481018d90526001600160a01b038b8116602483015260448201859052915193945091169163de9a957a9160648082019260009290919082900301818387803b15801561191957600080fd5b505af115801561192d573d6000803e3d6000fd5b5050505061194d60646118af878b60090154611e6c90919063ffffffff16565b6003546040805163c4a17ec960e01b8152600481018d90526001600160a01b038b8116602483015260448201859052915193945091169163c4a17ec99160648082019260009290919082900301818387803b1580156119ab57600080fd5b505af11580156119bf573d6000803e3d6000fd5b505050506119df60646118af878b600a0154611e6c90919063ffffffff16565b6003546040805163156460d960e11b8152600481018d90526001600160a01b038b81166024830152604482018590529151939450911691632ac8c1b29160648082019260009290919082900301818387803b158015611a3d57600080fd5b505af1158015611a51573d6000803e3d6000fd5b50505050611a7160646118af878b600b0154611e6c90919063ffffffff16565b60035460408051630dd14c3160e31b8152600481018d90526001600160a01b038b81166024830152604482018590529151939450911691636e8a61889160648082019260009290919082900301818387803b158015611acf57600080fd5b505af1158015611ae3573d6000803e3d6000fd5b50506040805188815290518d93508c92507febd129592de98831789a95ee9465fa6d4c6cf79d4788ac8d7effc6c8205768d69181900360200190a350505050505050505050565b6000818152602081905260409020600301544211611b8f576040805162461bcd60e51b815260206004820152601d60248201527f766f74696e6720706572696f64206e6f74207374617274656420796574000000604482015290519081900360640190fd5b600081815260208190526040902060080154611bf157600081815260208181526040918290204360089091018190558251908152915183927f4169469c5791d1acd84c8c616355c70799ea61c4b680d68e2587e7693259233992908290030190a25b50565b600082820183811015611c4e576040805162461bcd60e51b815260206004820152601b60248201527f536166654d6174683a206164646974696f6e206f766572666c6f770000000000604482015290519081900360640190fd5b90505b92915050565b6000611c4e83836040518060400160405280601e81526020017f536166654d6174683a207375627472616374696f6e206f766572666c6f770000815250611ec5565b6000828152602081905260408120600d810180549154909290821015611d0d575060005b81811015611cf35783838281548110611cd257fe5b90600052602060002001541415611ceb57505050611e26565b600101611cbd565b825460018101845560008481526020902001849055611e22565b506000805b600086815260208190526040902054821015611dc15760016000858381548110611d3857fe5b906000526020600020015481526020019081526020016000206000015460016000868581548110611d6557fe5b90600052602060002001548152602001908152602001600020600001541015611d8f575080611db6565b84848381548110611d9c57fe5b90600052602060002001541415611db65750505050611e26565b600190910190611d12565b60008581526001602081905260408220548654909290879085908110611de357fe5b90600052602060002001548152602001908152602001600020600001541015611e205784848281548110611e1357fe5b6000918252602090912001555b505b5050505b5050565b6000611c4e83836040518060400160405280601a81526020017f536166654d6174683a206469766973696f6e206279207a65726f000000000000815250611f5c565b600082611e7b57506000611c51565b82820282848281611e8857fe5b0414611c4e5760405162461bcd60e51b815260040180806020018281038252602181526020018061217f6021913960400191505060405180910390fd5b60008184841115611f545760405162461bcd60e51b81526004018080602001828103825283818151815260200191508051906020019080838360005b83811015611f19578181015183820152602001611f01565b50505050905090810190601f168015611f465780820380516001836020036101000a031916815260200191505b509250505060405180910390fd5b505050900390565b60008183611fab5760405162461bcd60e51b8152602060048201818152835160248401528351909283926044909101919085019080838360008315611f19578181015183820152602001611f01565b506000838581611fb757fe5b0495945050505050565b828054828255906000526020600020908101928215611ffc579160200282015b82811115611ffc578235825591602001919060010190611fe1565b5061200892915061200c565b5090565b61202691905b808211156120085760008155600101612012565b9056fe6d61784e756d6265724f66566f746573506572566f7465722073686f756c642062652067726561746572207468616e203073756767657374696f6e206973206e6f7420696e2077696e6e657273206c697374766f74657220686164206e6f2072657075746174696f6e207768656e20736e617073686f74207761732074616b656e636f6e747269627574696f6e5265776172644578742063616e6e6f74206265207a65726f737461727454696d652073686f756c642062652067726561746572207468616e2070726f706f73696e672074696d656e6f7420616c6c2077696e6e696e672073756767657374696f6e732072656465656d656473756767657374696f6e73207375626d6974696f6e2074696d65206973206f76657273756767657374696f6e73456e6454696d652073686f756c64206265206c61746572207468616e2070726f706f73616c2073746172742074696d65536166654d6174683a206d756c7469706c69636174696f6e206f766572666c6f77766f74696e672073746172742074696d652067726561746572207468616e20656e642074696d65766f74696e672073746172742074696d6520736d616c6c6572207468616e2073746172742074696d6573756767657374696f6e73456e6454696d652073686f756c64206265206561726c696572207468616e2070726f706f73616c20656e642074696d656e756d626572206f662077696e6e6572732067726561746572207468616e206d617820616c6c6f776564a265627a7a723158205b0eaade2ff0d636fa370245ff6ce0af30d1bf03937eb6eac4931e0ca3dc53fa64736f6c634300050d0032",
  "source": "pragma solidity 0.5.13;\n\nimport \"./ContributionRewardExt.sol\";\n\n\ncontract Competition {\n    using SafeMath for uint256;\n\n    uint256 constant public MAX_NUMBER_OF_WINNERS = 100;\n\n    event NewCompetitionProposal(\n        bytes32 indexed _proposalId,\n        uint256 _numberOfWinners,\n        uint256[] _rewardSplit,\n        uint256 _startTime,\n        uint256 _votingStartTime,\n        uint256 _suggestionsEndTime,\n        uint256 _endTime,\n        uint256 _maxNumberOfVotesPerVoter,\n        address payable _contributionRewardExt, //address of the contract to redeem from.\n        address _admin\n    );\n\n    event Redeem(\n        bytes32 indexed _proposalId,\n        uint256 indexed _suggestionId,\n        uint256 _rewardPercentage\n    );\n\n    event NewSuggestion(\n        bytes32 indexed _proposalId,\n        uint256 indexed _suggestionId,\n        string _descriptionHash,\n        address payable indexed _beneficiary\n    );\n\n    event NewVote(\n        bytes32 indexed _proposalId,\n        uint256 indexed _suggestionId,\n        address indexed _voter,\n        uint256 _reputation\n    );\n\n    event SnapshotBlock(\n        bytes32 indexed _proposalId,\n        uint256 _snapshotBlock\n    );\n\n    // A struct holding the data for a competition proposal\n    struct Proposal {\n        uint256 numberOfWinners;\n        uint256[] rewardSplit;\n        uint256 startTime;\n        uint256 votingStartTime;\n        uint256 suggestionsEndTime;\n        uint256 endTime;\n        uint256 maxNumberOfVotesPerVoter;\n        address payable contributionRewardExt;\n        uint256 snapshotBlock;\n        uint256 reputationReward;\n        uint256 ethReward;\n        uint256 nativeTokenReward;\n        uint256 externalTokenReward;\n        uint256[] topSuggestions;\n        address admin;\n        //mapping from suggestions totalVotes to the number of suggestions with the same totalVotes.\n        mapping(uint256=>uint256) suggestionsPerVote;\n        mapping(address=>uint256) votesPerVoter;\n    }\n\n    struct Suggestion {\n        uint256 totalVotes;\n        bytes32 proposalId;\n        address payable beneficiary;\n        mapping(address=>uint256) votes;\n    }\n\n    //mapping from proposalID to Proposal\n    mapping(bytes32=>Proposal) public proposals;\n    //mapping from suggestionId to Suggestion\n    mapping(uint256=>Suggestion) public suggestions;\n    uint256 public suggestionsCounter;\n    address payable public contributionRewardExt; //address of the contract to redeem from.\n\n    /**\n     * @dev initialize\n     * @param _contributionRewardExt the contributionRewardExt scheme which\n     *        manage and allocate the rewards for the competition.\n     */\n    function initialize(address payable _contributionRewardExt) external {\n        require(contributionRewardExt == address(0), \"can be called only one time\");\n        require(_contributionRewardExt != address(0), \"contributionRewardExt cannot be zero\");\n        contributionRewardExt = _contributionRewardExt;\n    }\n\n    /**\n    * @dev Submit a competion proposal\n    * @param _descriptionHash A hash of the proposal's description\n    * @param _reputationChange - Amount of reputation change requested .Can be negative.\n    * @param _rewards rewards array:\n    *         rewards[0] - Amount of tokens requested per period\n    *         rewards[1] - Amount of ETH requested per period\n    *         rewards[2] - Amount of external tokens requested per period\n    * @param _externalToken Address of external token, if reward is requested there\n    * @param _rewardSplit an array of precentages which specify how to split the rewards\n    *         between the winning suggestions\n    * @param _competitionParams competition parameters :\n    *         _competitionParams[0] - competition startTime\n    *         _competitionParams[1] - _votingStartTime competition voting start time\n    *         _competitionParams[2] - _endTime competition end time\n    *         _competitionParams[3] - _maxNumberOfVotesPerVoter on how many suggestions a voter can vote\n    *         _competitionParams[4] - _suggestionsEndTime suggestion submition end time\n    *        _proposerIsAdmin -\n    *          true -  proposer is an admin.\n    *          false no admin.\n    *          if admin is set, so only admin can suggest on this proposal.\n    * @return proposalId the proposal id.\n    */\n    function proposeCompetition(\n            string calldata _descriptionHash,\n            int256 _reputationChange,\n            uint[3] calldata _rewards,\n            IERC20 _externalToken,\n            uint256[] calldata _rewardSplit,\n            uint256[5] calldata _competitionParams,\n            bool _proposerIsAdmin\n    )\n    external\n    returns(bytes32 proposalId) {\n        uint256 numberOfWinners = _rewardSplit.length;\n        uint256 startTime = _competitionParams[0];\n        if (startTime == 0) {\n          // solhint-disable-next-line not-rely-on-time\n            startTime = now;\n        }\n        // solhint-disable-next-line not-rely-on-time\n        require(startTime >= now, \"startTime should be greater than proposing time\");\n        require(numberOfWinners <= MAX_NUMBER_OF_WINNERS, \"number of winners greater than max allowed\");\n        require(_competitionParams[1] < _competitionParams[2], \"voting start time greater than end time\");\n        require(_competitionParams[1] >= startTime, \"voting start time smaller than start time\");\n        require(_competitionParams[3] > 0, \"maxNumberOfVotesPerVoter should be greater than 0\");\n        require(_competitionParams[4] <= _competitionParams[2],\n        \"suggestionsEndTime should be earlier than proposal end time\");\n        require(_competitionParams[4] > startTime, \"suggestionsEndTime should be later than proposal start time\");\n        uint256 totalRewardSplit;\n        for (uint256 i = 0; i < numberOfWinners; i++) {\n            totalRewardSplit = totalRewardSplit.add(_rewardSplit[i]);\n        }\n        require(totalRewardSplit == 100, \"total rewards split is not 100%\");\n        proposalId = ContributionRewardExt(contributionRewardExt).proposeContributionReward(\n                _descriptionHash, _reputationChange, _rewards, _externalToken, contributionRewardExt, msg.sender);\n        proposals[proposalId].numberOfWinners = numberOfWinners;\n        proposals[proposalId].rewardSplit = _rewardSplit;\n        proposals[proposalId].startTime = startTime;\n        proposals[proposalId].votingStartTime = _competitionParams[1];\n        proposals[proposalId].endTime = _competitionParams[2];\n        proposals[proposalId].maxNumberOfVotesPerVoter = _competitionParams[3];\n        proposals[proposalId].suggestionsEndTime = _competitionParams[4];\n        proposals[proposalId].reputationReward = uint256(_reputationChange);\n        proposals[proposalId].nativeTokenReward = _rewards[0];\n        proposals[proposalId].ethReward = _rewards[1];\n        proposals[proposalId].externalTokenReward = _rewards[2];\n        if (_proposerIsAdmin) {\n            proposals[proposalId].admin = msg.sender;\n        }\n        emit NewCompetitionProposal(\n            proposalId,\n            numberOfWinners,\n            proposals[proposalId].rewardSplit,\n            startTime,\n            proposals[proposalId].votingStartTime,\n            proposals[proposalId].suggestionsEndTime,\n            proposals[proposalId].endTime,\n            proposals[proposalId].maxNumberOfVotesPerVoter,\n            contributionRewardExt,\n            proposals[proposalId].admin\n        );\n    }\n\n    /**\n    * @dev submit a competion suggestion\n    * @param _proposalId the proposal id this suggestion is referring to.\n    * @param _descriptionHash a descriptionHash of the suggestion.\n    * @param _beneficiary the beneficiary of this suggestion.\n    * @return suggestionId the suggestionId.\n    */\n    function suggest(\n            bytes32 _proposalId,\n            string calldata _descriptionHash,\n            address payable _beneficiary\n    )\n    external\n    returns(uint256)\n    {\n        if (proposals[_proposalId].admin != address(0)) {\n            require(proposals[_proposalId].admin == msg.sender, \"only admin can suggest\");\n        }\n        // solhint-disable-next-line not-rely-on-time\n        require(proposals[_proposalId].startTime <= now, \"competition not started yet\");\n        // solhint-disable-next-line not-rely-on-time\n        require(proposals[_proposalId].suggestionsEndTime > now, \"suggestions submition time is over\");\n        suggestionsCounter = suggestionsCounter.add(1);\n        suggestions[suggestionsCounter].proposalId = _proposalId;\n        address payable beneficiary;\n        if (_beneficiary == address(0)) {\n            beneficiary = msg.sender;\n        } else {\n            beneficiary = _beneficiary;\n        }\n        suggestions[suggestionsCounter].beneficiary = beneficiary;\n        emit NewSuggestion(_proposalId, suggestionsCounter, _descriptionHash, beneficiary);\n        return suggestionsCounter;\n    }\n\n    /**\n    * @dev vote on a suggestion\n    * @param _suggestionId suggestionId\n    * @return bool\n    */\n    function vote(uint256 _suggestionId)\n    external\n    returns(bool)\n    {\n        bytes32 proposalId = suggestions[_suggestionId].proposalId;\n        require(proposalId != bytes32(0), \"suggestion does not exist\");\n        setSnapshotBlock(proposalId);\n        Avatar avatar = ContributionRewardExt(contributionRewardExt).avatar();\n        uint256 reputation = avatar.nativeReputation().balanceOfAt(msg.sender, proposals[proposalId].snapshotBlock);\n        require(reputation > 0, \"voter had no reputation when snapshot was taken\");\n        Proposal storage proposal = proposals[proposalId];\n        // solhint-disable-next-line not-rely-on-time\n        require(proposal.endTime > now, \"competition ended\");\n        Suggestion storage suggestion = suggestions[_suggestionId];\n        require(suggestion.votes[msg.sender] == 0, \"already voted on this suggestion\");\n        require(proposal.votesPerVoter[msg.sender] < proposal.maxNumberOfVotesPerVoter,\n        \"exceed number of votes allowed\");\n        proposal.votesPerVoter[msg.sender] = proposal.votesPerVoter[msg.sender].add(1);\n        if (suggestion.totalVotes > 0) {\n            proposal.suggestionsPerVote[suggestion.totalVotes] =\n            proposal.suggestionsPerVote[suggestion.totalVotes].sub(1);\n        }\n        suggestion.totalVotes = suggestion.totalVotes.add(reputation);\n        proposal.suggestionsPerVote[suggestion.totalVotes] = proposal.suggestionsPerVote[suggestion.totalVotes].add(1);\n        suggestion.votes[msg.sender] = reputation;\n        refreshTopSuggestions(proposalId, _suggestionId);\n        emit NewVote(proposalId, _suggestionId, msg.sender, reputation);\n        return true;\n    }\n\n    /**\n    * @dev setSnapshotBlock set the block for the reputaion snapshot\n    * @param _proposalId the proposal id\n    */\n    function setSnapshotBlock(bytes32 _proposalId) public {\n        // solhint-disable-next-line not-rely-on-time\n        require(proposals[_proposalId].votingStartTime < now, \"voting period not started yet\");\n        if (proposals[_proposalId].snapshotBlock == 0) {\n            proposals[_proposalId].snapshotBlock = block.number;\n            emit SnapshotBlock(_proposalId, block.number);\n        }\n    }\n\n    /**\n    * @dev sendLeftOverFund send letf over funds back to the dao.\n    * @param _proposalId the proposal id\n    */\n    function sendLeftOverFunds(bytes32 _proposalId) public {\n        // solhint-disable-next-line not-rely-on-time\n        require(proposals[_proposalId].endTime < now, \"competition is still on\");\n        uint256[] memory topSuggestions = proposals[_proposalId].topSuggestions;\n        for (uint256 i; i < topSuggestions.length; i++) {\n            require(suggestions[topSuggestions[i]].beneficiary == address(0), \"not all winning suggestions redeemed\");\n        }\n\n        (, , , , , ,\n        uint256 nativeTokenRewardLeft, ,\n        uint256 ethRewardLeft,\n        uint256 externalTokenRewardLeft,)\n        = ContributionRewardExt(contributionRewardExt).organizationProposals(_proposalId);\n\n        Avatar avatar = ContributionRewardExt(contributionRewardExt).avatar();\n\n        ContributionRewardExt(contributionRewardExt).redeemExternalTokenByRewarder(\n        _proposalId, address(avatar), externalTokenRewardLeft);\n\n        ContributionRewardExt(contributionRewardExt).redeemEtherByRewarder(\n        _proposalId, address(avatar), ethRewardLeft);\n\n        ContributionRewardExt(contributionRewardExt).redeemNativeTokenByRewarder(\n        _proposalId, address(avatar), nativeTokenRewardLeft);\n    }\n\n    /**\n    * @dev redeem a winning suggestion reward\n    * @param _suggestionId suggestionId\n    */\n    function redeem(uint256 _suggestionId) public {\n        bytes32 proposalId = suggestions[_suggestionId].proposalId;\n        Proposal storage proposal = proposals[proposalId];\n        // solhint-disable-next-line not-rely-on-time\n        require(proposal.endTime < now, \"competition is still on\");\n        require(suggestions[_suggestionId].beneficiary != address(0),\n        \"suggestion was already redeemed\");\n        address payable beneficiary = suggestions[_suggestionId].beneficiary;\n        uint256 orderIndex = getOrderedIndexOfSuggestion(_suggestionId);\n        require(orderIndex < proposal.topSuggestions.length, \"suggestion is not in winners list\");\n        suggestions[_suggestionId].beneficiary = address(0);\n        uint256 rewardPercentage = 0;\n        uint256 numberOfTieSuggestions = proposal.suggestionsPerVote[suggestions[_suggestionId].totalVotes];\n        uint256 j;\n        //calc the reward percentage for this suggestion\n        for (j = orderIndex; j < (orderIndex+numberOfTieSuggestions) && j < proposal.numberOfWinners; j++) {\n            rewardPercentage = rewardPercentage.add(proposal.rewardSplit[j]);\n        }\n        rewardPercentage = rewardPercentage.div(numberOfTieSuggestions);\n        uint256 rewardPercentageLeft = 0;\n        if (proposal.topSuggestions.length < proposal.numberOfWinners) {\n          //if there are less winners than the proposal number of winners so divide the pre allocated\n          //left reward equally between the winners\n            for (j = proposal.topSuggestions.length; j < proposal.numberOfWinners; j++) {\n                rewardPercentageLeft = rewardPercentageLeft.add(proposal.rewardSplit[j]);\n            }\n            rewardPercentage =\n            rewardPercentage.add(rewardPercentageLeft.div(proposal.topSuggestions.length));\n        }\n        uint256 amount;\n        amount = proposal.externalTokenReward.mul(rewardPercentage).div(100);\n        ContributionRewardExt(contributionRewardExt).redeemExternalTokenByRewarder(\n        proposalId, beneficiary, amount);\n\n        amount = proposal.reputationReward.mul(rewardPercentage).div(100);\n        ContributionRewardExt(contributionRewardExt).redeemReputationByRewarder(\n        proposalId, beneficiary, amount);\n\n        amount = proposal.ethReward.mul(rewardPercentage).div(100);\n        ContributionRewardExt(contributionRewardExt).redeemEtherByRewarder(\n        proposalId, beneficiary, amount);\n\n        amount = proposal.nativeTokenReward.mul(rewardPercentage).div(100);\n        ContributionRewardExt(contributionRewardExt).redeemNativeTokenByRewarder(\n        proposalId, beneficiary, amount);\n        emit Redeem(proposalId, _suggestionId, rewardPercentage);\n    }\n\n    /**\n    * @dev getOrderedIndexOfSuggestion return the index of specific suggestion in the winners list.\n    * @param _suggestionId suggestion id\n    */\n    function getOrderedIndexOfSuggestion(uint256 _suggestionId)\n    public\n    view\n    returns(uint256 index) {\n        bytes32 proposalId = suggestions[_suggestionId].proposalId;\n        require(proposalId != bytes32(0), \"suggestion does not exist\");\n        uint256[] memory topSuggestions = proposals[proposalId].topSuggestions;\n        /** get how many elements are greater than a given element*/\n        for (uint256 i; i < topSuggestions.length; i++) {\n            if (suggestions[topSuggestions[i]].totalVotes > suggestions[_suggestionId].totalVotes) {\n                index++;\n            }\n        }\n    }\n\n    /**\n    * @dev refreshTopSuggestions this function maintain a winners list array.\n    * it will check if the given suggestion is among the top suggestions, and if so,\n    * update the list of top suggestions\n    * @param _proposalId proposal id\n    * @param _suggestionId suggestion id\n    */\n    // solhint-disable-next-line code-complexity\n    function refreshTopSuggestions(bytes32 _proposalId, uint256 _suggestionId) private {\n        uint256[] storage topSuggestions = proposals[_proposalId].topSuggestions;\n        uint256 topSuggestionsLength = topSuggestions.length;\n        uint256 i;\n        if (topSuggestionsLength < proposals[_proposalId].numberOfWinners) {\n            for (i = 0; i < topSuggestionsLength; i++) {\n                if (topSuggestions[i] == _suggestionId) {\n                    return;\n                }\n            }\n            topSuggestions.push(_suggestionId);\n        } else {\n         /** get the index of the smallest element **/\n            uint256 smallest = 0;\n            for (i = 0; i < proposals[_proposalId].numberOfWinners; i++) {\n                if (suggestions[topSuggestions[i]].totalVotes <\n                    suggestions[topSuggestions[smallest]].totalVotes) {\n                    smallest = i;\n                } else if (topSuggestions[i] == _suggestionId) {\n                  //the suggestion is already in the topSuggestions list\n                    return;\n                }\n            }\n\n            if (suggestions[topSuggestions[smallest]].totalVotes < suggestions[_suggestionId].totalVotes) {\n                topSuggestions[smallest] = _suggestionId;\n            }\n        }\n    }\n\n}\n",
  "sourcePath": "/Users/oren/daostack/arc/contracts/schemes/Competition.sol",
  "compiler": {
    "name": "solc",
    "version": "0.5.13+commit.5b0b510c.Emscripten.clang"
  },
  "schemaVersion": "3.0.20",
  "updatedAt": "2020-01-23T11:28:48.846Z",
  "devdoc": {
    "methods": {
      "getOrderedIndexOfSuggestion(uint256)": {
        "details": "getOrderedIndexOfSuggestion return the index of specific suggestion in the winners list.",
        "params": {
          "_suggestionId": "suggestion id"
        }
      },
      "initialize(address)": {
        "details": "initialize",
        "params": {
          "_contributionRewardExt": "the contributionRewardExt scheme which       manage and allocate the rewards for the competition."
        }
      },
      "proposeCompetition(string,int256,uint256[3],address,uint256[],uint256[5],bool)": {
        "details": "Submit a competion proposal",
        "params": {
          "_competitionParams": "competition parameters :        _competitionParams[0] - competition startTime        _competitionParams[1] - _votingStartTime competition voting start time        _competitionParams[2] - _endTime competition end time        _competitionParams[3] - _maxNumberOfVotesPerVoter on how many suggestions a voter can vote        _competitionParams[4] - _suggestionsEndTime suggestion submition end time       _proposerIsAdmin -         true -  proposer is an admin.         false no admin.         if admin is set, so only admin can suggest on this proposal.",
          "_descriptionHash": "A hash of the proposal's description",
          "_externalToken": "Address of external token, if reward is requested there",
          "_reputationChange": "- Amount of reputation change requested .Can be negative.",
          "_rewardSplit": "an array of precentages which specify how to split the rewards        between the winning suggestions",
          "_rewards": "rewards array:        rewards[0] - Amount of tokens requested per period        rewards[1] - Amount of ETH requested per period        rewards[2] - Amount of external tokens requested per period"
        },
        "return": "proposalId the proposal id."
      },
      "redeem(uint256)": {
        "details": "redeem a winning suggestion reward",
        "params": {
          "_suggestionId": "suggestionId"
        }
      },
      "sendLeftOverFunds(bytes32)": {
        "details": "sendLeftOverFund send letf over funds back to the dao.",
        "params": {
          "_proposalId": "the proposal id"
        }
      },
      "setSnapshotBlock(bytes32)": {
        "details": "setSnapshotBlock set the block for the reputaion snapshot",
        "params": {
          "_proposalId": "the proposal id"
        }
      },
      "suggest(bytes32,string,address)": {
        "details": "submit a competion suggestion",
        "params": {
          "_beneficiary": "the beneficiary of this suggestion.",
          "_descriptionHash": "a descriptionHash of the suggestion.",
          "_proposalId": "the proposal id this suggestion is referring to."
        },
        "return": "suggestionId the suggestionId."
      },
      "vote(uint256)": {
        "details": "vote on a suggestion",
        "params": {
          "_suggestionId": "suggestionId"
        },
        "return": "bool"
      }
    }
  },
  "userdoc": {
    "methods": {}
  }
}