{
  "contractName": "ReputationAdmin",
  "abi": [
    {
      "anonymous": false,
      "inputs": [
        {
          "indexed": true,
          "internalType": "address",
          "name": "previousOwner",
          "type": "address"
        },
        {
          "indexed": true,
          "internalType": "address",
          "name": "newOwner",
          "type": "address"
        }
      ],
      "name": "OwnershipTransferred",
      "type": "event"
    },
    {
      "constant": true,
      "inputs": [],
      "name": "activationEndTime",
      "outputs": [
        {
          "internalType": "uint256",
          "name": "",
          "type": "uint256"
        }
      ],
      "payable": false,
      "stateMutability": "view",
      "type": "function"
    },
    {
      "constant": true,
      "inputs": [],
      "name": "activationStartTime",
      "outputs": [
        {
          "internalType": "uint256",
          "name": "",
          "type": "uint256"
        }
      ],
      "payable": false,
      "stateMutability": "view",
      "type": "function"
    },
    {
      "constant": true,
      "inputs": [],
      "name": "avatar",
      "outputs": [
        {
          "internalType": "contract Avatar",
          "name": "",
          "type": "address"
        }
      ],
      "payable": false,
      "stateMutability": "view",
      "type": "function"
    },
    {
      "constant": true,
      "inputs": [],
      "name": "isOwner",
      "outputs": [
        {
          "internalType": "bool",
          "name": "",
          "type": "bool"
        }
      ],
      "payable": false,
      "stateMutability": "view",
      "type": "function"
    },
    {
      "constant": true,
      "inputs": [],
      "name": "limitRepReward",
      "outputs": [
        {
          "internalType": "uint256",
          "name": "",
          "type": "uint256"
        }
      ],
      "payable": false,
      "stateMutability": "view",
      "type": "function"
    },
    {
      "constant": true,
      "inputs": [],
      "name": "owner",
      "outputs": [
        {
          "internalType": "address",
          "name": "",
          "type": "address"
        }
      ],
      "payable": false,
      "stateMutability": "view",
      "type": "function"
    },
    {
      "constant": false,
      "inputs": [],
      "name": "renounceOwnership",
      "outputs": [],
      "payable": false,
      "stateMutability": "nonpayable",
      "type": "function"
    },
    {
      "constant": true,
      "inputs": [],
      "name": "repRewardLeft",
      "outputs": [
        {
          "internalType": "uint256",
          "name": "",
          "type": "uint256"
        }
      ],
      "payable": false,
      "stateMutability": "view",
      "type": "function"
    },
    {
      "constant": false,
      "inputs": [
        {
          "internalType": "address",
          "name": "newOwner",
          "type": "address"
        }
      ],
      "name": "transferOwnership",
      "outputs": [],
      "payable": false,
      "stateMutability": "nonpayable",
      "type": "function"
    },
    {
      "constant": false,
      "inputs": [
        {
          "internalType": "contract Avatar",
          "name": "_avatar",
          "type": "address"
        },
        {
          "internalType": "uint256",
          "name": "_activationStartTime",
          "type": "uint256"
        },
        {
          "internalType": "uint256",
          "name": "_activationEndTime",
          "type": "uint256"
        },
        {
          "internalType": "uint256",
          "name": "_maxRepReward",
          "type": "uint256"
        }
      ],
      "name": "initialize",
      "outputs": [],
      "payable": false,
      "stateMutability": "nonpayable",
      "type": "function"
    },
    {
      "constant": false,
      "inputs": [
        {
          "internalType": "address[]",
          "name": "_beneficiaries",
          "type": "address[]"
        },
        {
          "internalType": "uint256[]",
          "name": "_amounts",
          "type": "uint256[]"
        }
      ],
      "name": "reputationMint",
      "outputs": [],
      "payable": false,
      "stateMutability": "nonpayable",
      "type": "function"
    },
    {
      "constant": false,
      "inputs": [
        {
          "internalType": "address[]",
          "name": "_beneficiaries",
          "type": "address[]"
        },
        {
          "internalType": "uint256[]",
          "name": "_amounts",
          "type": "uint256[]"
        }
      ],
      "name": "reputationBurn",
      "outputs": [],
      "payable": false,
      "stateMutability": "nonpayable",
      "type": "function"
    }
  ],
  "bytecode": "0x60806040526100156001600160e01b0361006216565b600080546001600160a01b0319166001600160a01b03928316178082556040519216917f8be0079c531659141344cd1fd0a4f28419497f9722a3daafe3b4186f6b6457e0908290a3610066565b3390565b610eac806100756000396000f3fe608060405234801561001057600080fd5b50600436106100b45760003560e01c80638da5cb5b116100715780638da5cb5b146101ff5780638f32d59b14610207578063c0b7a42d14610223578063cc5cd2e7146102e1578063e843cc18146102e9578063f2fde38b146102f1576100b4565b80630f3ce408146100b95780634271f6d3146101795780634ec81af1146101935780635aef7de6146101cb5780636f15e1e0146101ef578063715018a6146101f7575b600080fd5b610177600480360360408110156100cf57600080fd5b810190602081018135600160201b8111156100e957600080fd5b8201836020820111156100fb57600080fd5b803590602001918460208302840111600160201b8311171561011c57600080fd5b919390929091602081019035600160201b81111561013957600080fd5b82018360208201111561014b57600080fd5b803590602001918460208302840111600160201b8311171561016c57600080fd5b509092509050610317565b005b6101816103fb565b60408051918252519081900360200190f35b610177600480360360808110156101a957600080fd5b506001600160a01b038135169060208101359060408101359060600135610401565b6101d361056b565b604080516001600160a01b039092168252519081900360200190f35b61018161057a565b610177610580565b6101d3610611565b61020f610620565b604080519115158252519081900360200190f35b6101776004803603604081101561023957600080fd5b810190602081018135600160201b81111561025357600080fd5b82018360208201111561026557600080fd5b803590602001918460208302840111600160201b8311171561028657600080fd5b919390929091602081019035600160201b8111156102a357600080fd5b8201836020820111156102b557600080fd5b803590602001918460208302840111600160201b831117156102d657600080fd5b509092509050610644565b610181610721565b610181610727565b6101776004803603602081101561030757600080fd5b50356001600160a01b031661072d565b61031f610620565b61035e576040805162461bcd60e51b81526020600482018190526024820152600080516020610e58833981519152604482015290519081900360640190fd5b8281146103aa576040805162461bcd60e51b8152602060048201526015602482015274082e4e4c2f2e640d8cadccee8d040dad2e6daeac6d605b1b604482015290519081900360640190fd5b60005b838110156103f4576103ec8585838181106103c457fe5b905060200201356001600160a01b03168484848181106103e057fe5b90506020020135610780565b6001016103ad565b5050505050565b60045481565b610409610620565b610448576040805162461bcd60e51b81526020600482018190526024820152600080516020610e58833981519152604482015290519081900360640190fd5b6001546001600160a01b0316156104a6576040805162461bcd60e51b815260206004820152601b60248201527f63616e2062652063616c6c6564206f6e6c79206f6e652074696d650000000000604482015290519081900360640190fd5b6001600160a01b0384166104f9576040805162461bcd60e51b81526020600482015260156024820152746176617461722063616e6e6f74206265207a65726f60581b604482015290519081900360640190fd5b8183106105375760405162461bcd60e51b8152600401808060200182810382526029815260200180610e2f6029913960400191505060405180910390fd5b600180546001600160a01b0319166001600160a01b0395909516949094179093556002919091556003556004819055600555565b6001546001600160a01b031681565b60055481565b610588610620565b6105c7576040805162461bcd60e51b81526020600482018190526024820152600080516020610e58833981519152604482015290519081900360640190fd5b600080546040516001600160a01b03909116907f8be0079c531659141344cd1fd0a4f28419497f9722a3daafe3b4186f6b6457e0908390a3600080546001600160a01b0319169055565b6000546001600160a01b031690565b600080546001600160a01b0316610635610987565b6001600160a01b031614905090565b61064c610620565b61068b576040805162461bcd60e51b81526020600482018190526024820152600080516020610e58833981519152604482015290519081900360640190fd5b8281146106d7576040805162461bcd60e51b8152602060048201526015602482015274082e4e4c2f2e640d8cadccee8d040dad2e6daeac6d605b1b604482015290519081900360640190fd5b60005b838110156103f4576107198585838181106106f157fe5b905060200201356001600160a01b031684848481811061070d57fe5b9050602002013561098b565b6001016106da565b60035481565b60025481565b610735610620565b610774576040805162461bcd60e51b81526020600482018190526024820152600080516020610e58833981519152604482015290519081900360640190fd5b61077d81610c0d565b50565b6002544210156107d7576040805162461bcd60e51b815260206004820181905260248201527f4d696e74696e6720706572696f6420646964206e6f7420737461727420796574604482015290519081900360640190fd5b6003544210610825576040805162461bcd60e51b815260206004820152601560248201527426b4b73a34b733903832b934b7b21032b73232b21760591b604482015290519081900360640190fd5b6005541561084457600454610840908263ffffffff610cad16565b6004555b600160009054906101000a90046001600160a01b03166001600160a01b0316638da5cb5b6040518163ffffffff1660e01b815260040160206040518083038186803b15801561089257600080fd5b505afa1580156108a6573d6000803e3d6000fd5b505050506040513d60208110156108bc57600080fd5b50516001546040805163757cca5960e11b8152600481018590526001600160a01b03868116602483015292831660448201529051919092169163eaf994b29160648083019260209291908290030181600087803b15801561091c57600080fd5b505af1158015610930573d6000803e3d6000fd5b505050506040513d602081101561094657600080fd5b50516109835760405162461bcd60e51b8152600401808060200182810382526021815260200180610e0e6021913960400191505060405180910390fd5b5050565b3390565b6002544210156109e2576040805162461bcd60e51b815260206004820181905260248201527f4275726e696e6720706572696f6420646964206e6f7420737461727420796574604482015290519081900360640190fd5b6003544210610a30576040805162461bcd60e51b8152602060048201526015602482015274213ab93734b733903832b934b7b21032b73232b21760591b604482015290519081900360640190fd5b60055415610ab857600454600554610a4d9163ffffffff610cad16565b811115610aa1576040805162461bcd60e51b815260206004820152601c60248201527f43616e6e6f74206275726e206d6f7265207468616e206d696e74656400000000604482015290519081900360640190fd5b600454610ab4908263ffffffff610cf616565b6004555b600160009054906101000a90046001600160a01b03166001600160a01b0316638da5cb5b6040518163ffffffff1660e01b815260040160206040518083038186803b158015610b0657600080fd5b505afa158015610b1a573d6000803e3d6000fd5b505050506040513d6020811015610b3057600080fd5b505160015460408051630dd29a4f60e31b8152600481018590526001600160a01b038681166024830152928316604482015290519190921691636e94d2789160648083019260209291908290030181600087803b158015610b9057600080fd5b505af1158015610ba4573d6000803e3d6000fd5b505050506040513d6020811015610bba57600080fd5b5051610983576040805162461bcd60e51b815260206004820152601e60248201527f4275726e2072657075746174696f6e2073686f756c6420737563636565640000604482015290519081900360640190fd5b6001600160a01b038116610c525760405162461bcd60e51b8152600401808060200182810382526026815260200180610de86026913960400191505060405180910390fd5b600080546040516001600160a01b03808516939216917f8be0079c531659141344cd1fd0a4f28419497f9722a3daafe3b4186f6b6457e091a3600080546001600160a01b0319166001600160a01b0392909216919091179055565b6000610cef83836040518060400160405280601e81526020017f536166654d6174683a207375627472616374696f6e206f766572666c6f770000815250610d50565b9392505050565b600082820183811015610cef576040805162461bcd60e51b815260206004820152601b60248201527f536166654d6174683a206164646974696f6e206f766572666c6f770000000000604482015290519081900360640190fd5b60008184841115610ddf5760405162461bcd60e51b81526004018080602001828103825283818151815260200191508051906020019080838360005b83811015610da4578181015183820152602001610d8c565b50505050905090810190601f168015610dd15780820380516001836020036101000a031916815260200191505b509250505060405180910390fd5b50505090039056fe4f776e61626c653a206e6577206f776e657220697320746865207a65726f20616464726573734d696e74696e672072657075746174696f6e2073686f756c6420737563636565645f61637469766174696f6e537461727454696d65203c205f61637469766174696f6e456e6454696d654f776e61626c653a2063616c6c6572206973206e6f7420746865206f776e6572a265627a7a723158209cce2476d7a0c823add1a8b767b30f3fb22b3ecc3d28051e35928ad8576c205b64736f6c634300050d0032",
  "source": "pragma solidity 0.5.13;\n\nimport \"openzeppelin-solidity/contracts/ownership/Ownable.sol\";\nimport \"openzeppelin-solidity/contracts/math/SafeMath.sol\";\nimport \"../controller/Controller.sol\";\n\n/**\n * @title A scheme for reputation minting/burning by an authorized account\n */\n\ncontract ReputationAdmin is Ownable {\n    using SafeMath for uint256;\n\n    Avatar public avatar;\n    uint256 public activationStartTime;\n    uint256 public activationEndTime;\n    uint256 public repRewardLeft;\n    uint256 public limitRepReward;\n\n    /**\n     * @dev initialize\n     * @param _avatar the avatar to mint reputation from\n     * @param _activationStartTime start time for allowing minting\n     * @param _activationEndTime end time for allowing minting\n     * @param _maxRepReward maximum reputation mintable by this scheme\n     */\n    function initialize(\n        Avatar _avatar,\n        uint256 _activationStartTime,\n        uint256 _activationEndTime,\n        uint256 _maxRepReward\n    ) external onlyOwner {\n        require(avatar == Avatar(0), \"can be called only one time\");\n        require(_avatar != Avatar(0), \"avatar cannot be zero\");\n        require(_activationStartTime < _activationEndTime, \"_activationStartTime < _activationEndTime\");\n        avatar = _avatar;\n        activationStartTime = _activationStartTime;\n        activationEndTime = _activationEndTime;\n        repRewardLeft = _maxRepReward;\n        limitRepReward = _maxRepReward;\n    }\n\n    /**\n     * @dev reputationBurn function\n     * @param _beneficiaries the beneficiaries address to mint reputation from\n     * @param _amounts the amounts of reputation to mint for beneficiaries\n     */\n    function reputationMint(address[] calldata _beneficiaries, uint256[] calldata _amounts) external onlyOwner {\n        require(_beneficiaries.length == _amounts.length, \"Arrays length mismuch\");\n        for (uint256 i=0; i < _beneficiaries.length; i++) {\n            _reputationMint(_beneficiaries[i], _amounts[i]);\n        }\n    }\n\n    /**\n     * @dev reputationBurn function\n     * @param _beneficiaries the beneficiaries address to burm reputation from\n     * @param _amounts the amounts of reputation to burn for beneficiaries\n     */\n    function reputationBurn(address[] calldata _beneficiaries, uint256[] calldata _amounts) external onlyOwner {\n        require(_beneficiaries.length == _amounts.length, \"Arrays length mismuch\");\n        for (uint256 i=0; i < _beneficiaries.length; i++) {\n            _reputationBurn(_beneficiaries[i], _amounts[i]);\n        }\n    }\n\n    /**\n     * @dev reputationMint function\n     * @param _beneficiary the beneficiary address to mint reputation for\n     * @param _amount the amount of reputation to mint the the beneficirary\n     */\n    function _reputationMint(address _beneficiary, uint256 _amount) private {\n        // solhint-disable-next-line not-rely-on-time\n        require(now >= activationStartTime, \"Minting period did not start yet\");\n        // solhint-disable-next-line not-rely-on-time\n        require(now < activationEndTime, \"Minting period ended.\");\n\n        if (limitRepReward > 0) {\n            repRewardLeft = repRewardLeft.sub(_amount);\n        }\n\n        require(\n            Controller(avatar.owner()).mintReputation(_amount, _beneficiary, address(avatar)),\n            \"Minting reputation should succeed\"\n        );\n    }\n\n    /**\n     * @dev reputationBurn function\n     * @param _beneficiary the beneficiary address to burm reputation from\n     * @param _amount the amount of reputation to burn for a beneficirary\n     */\n    function _reputationBurn(address _beneficiary, uint256 _amount) private {\n        // solhint-disable-next-line not-rely-on-time\n        require(now >= activationStartTime, \"Burning period did not start yet\");\n        // solhint-disable-next-line not-rely-on-time\n        require(now < activationEndTime, \"Burning period ended.\");\n\n        if (limitRepReward > 0) {\n            require(_amount <= limitRepReward.sub(repRewardLeft), \"Cannot burn more than minted\");\n            repRewardLeft = repRewardLeft.add(_amount);\n        }\n\n        require(\n            Controller(avatar.owner()).burnReputation(_amount, _beneficiary, address(avatar)),\n            \"Burn reputation should succeed\"\n        );\n    }\n}\n",
  "sourcePath": "/Users/oren/daostack/arc/contracts/schemes/ReputationAdmin.sol",
  "compiler": {
    "name": "solc",
    "version": "0.5.13+commit.5b0b510c.Emscripten.clang"
  },
  "schemaVersion": "3.0.20",
  "updatedAt": "2020-01-23T11:28:48.930Z",
  "devdoc": {
    "methods": {
      "initialize(address,uint256,uint256,uint256)": {
        "details": "initialize",
        "params": {
          "_activationEndTime": "end time for allowing minting",
          "_activationStartTime": "start time for allowing minting",
          "_avatar": "the avatar to mint reputation from",
          "_maxRepReward": "maximum reputation mintable by this scheme"
        }
      },
      "isOwner()": {
        "details": "Returns true if the caller is the current owner."
      },
      "owner()": {
        "details": "Returns the address of the current owner."
      },
      "renounceOwnership()": {
        "details": "Leaves the contract without owner. It will not be possible to call `onlyOwner` functions anymore. Can only be called by the current owner.     * NOTE: Renouncing ownership will leave the contract without an owner, thereby removing any functionality that is only available to the owner."
      },
      "reputationBurn(address[],uint256[])": {
        "details": "reputationBurn function",
        "params": {
          "_amounts": "the amounts of reputation to burn for beneficiaries",
          "_beneficiaries": "the beneficiaries address to burm reputation from"
        }
      },
      "reputationMint(address[],uint256[])": {
        "details": "reputationBurn function",
        "params": {
          "_amounts": "the amounts of reputation to mint for beneficiaries",
          "_beneficiaries": "the beneficiaries address to mint reputation from"
        }
      },
      "transferOwnership(address)": {
        "details": "Transfers ownership of the contract to a new account (`newOwner`). Can only be called by the current owner."
      }
    },
    "title": "A scheme for reputation minting/burning by an authorized account"
  },
  "userdoc": {
    "methods": {}
  }
}