{
  "contractName": "TokenCapGC",
  "abi": [
    {
      "constant": true,
      "inputs": [
        {
          "internalType": "bytes32",
          "name": "",
          "type": "bytes32"
        }
      ],
      "name": "parameters",
      "outputs": [
        {
          "internalType": "contract IERC20",
          "name": "token",
          "type": "address"
        },
        {
          "internalType": "uint256",
          "name": "cap",
          "type": "uint256"
        }
      ],
      "payable": false,
      "stateMutability": "view",
      "type": "function"
    },
    {
      "constant": false,
      "inputs": [
        {
          "internalType": "contract IERC20",
          "name": "_token",
          "type": "address"
        },
        {
          "internalType": "uint256",
          "name": "_cap",
          "type": "uint256"
        }
      ],
      "name": "setParameters",
      "outputs": [
        {
          "internalType": "bytes32",
          "name": "",
          "type": "bytes32"
        }
      ],
      "payable": false,
      "stateMutability": "nonpayable",
      "type": "function"
    },
    {
      "constant": true,
      "inputs": [
        {
          "internalType": "contract IERC20",
          "name": "_token",
          "type": "address"
        },
        {
          "internalType": "uint256",
          "name": "_cap",
          "type": "uint256"
        }
      ],
      "name": "getParametersHash",
      "outputs": [
        {
          "internalType": "bytes32",
          "name": "",
          "type": "bytes32"
        }
      ],
      "payable": false,
      "stateMutability": "pure",
      "type": "function"
    },
    {
      "constant": true,
      "inputs": [
        {
          "internalType": "address",
          "name": "",
          "type": "address"
        },
        {
          "internalType": "bytes32",
          "name": "",
          "type": "bytes32"
        },
        {
          "internalType": "bytes32",
          "name": "",
          "type": "bytes32"
        }
      ],
      "name": "pre",
      "outputs": [
        {
          "internalType": "bool",
          "name": "",
          "type": "bool"
        }
      ],
      "payable": false,
      "stateMutability": "pure",
      "type": "function"
    },
    {
      "constant": true,
      "inputs": [
        {
          "internalType": "address",
          "name": "",
          "type": "address"
        },
        {
          "internalType": "bytes32",
          "name": "_paramsHash",
          "type": "bytes32"
        },
        {
          "internalType": "bytes32",
          "name": "",
          "type": "bytes32"
        }
      ],
      "name": "post",
      "outputs": [
        {
          "internalType": "bool",
          "name": "",
          "type": "bool"
        }
      ],
      "payable": false,
      "stateMutability": "view",
      "type": "function"
    },
    {
      "constant": true,
      "inputs": [],
      "name": "when",
      "outputs": [
        {
          "internalType": "enum GlobalConstraintInterface.CallPhase",
          "name": "",
          "type": "uint8"
        }
      ],
      "payable": false,
      "stateMutability": "pure",
      "type": "function"
    }
  ],
  "bytecode": "0x608060405234801561001057600080fd5b506103b4806100206000396000f3fe608060405234801561001057600080fd5b50600436106100725760003560e01c8063c1786ab211610050578063c1786ab21461013b578063c41981611461016d578063e2b0caef1461019957610072565b8063025068041461007757806378fc063c146100b75780638043154d146100f5575b600080fd5b6100946004803603602081101561008d57600080fd5b50356101c5565b604080516001600160a01b03909316835260208301919091528051918290030190f35b6100e3600480360360408110156100cd57600080fd5b506001600160a01b0381351690602001356101ea565b60408051918252519081900360200190f35b6101276004803603606081101561010b57600080fd5b506001600160a01b038135169060208101359060400135610241565b604080519115158252519081900360200190f35b6101276004803603606081101561015157600080fd5b506001600160a01b038135169060208101359060400135610314565b6100e36004803603604081101561018357600080fd5b506001600160a01b03813516906020013561031d565b6101a161037a565b604051808260028111156101b157fe5b60ff16815260200191505060405180910390f35b600060208190529081526040902080546001909101546001600160a01b039091169082565b6040805160609390931b7fffffffffffffffffffffffffffffffffffffffff000000000000000000000000166020808501919091526034808501939093528151808503909301835260549093019052805191012090565b6000828152602081905260408120546001600160a01b0316158015906102fc5750600083815260208181526040918290206001810154905483517f18160ddd000000000000000000000000000000000000000000000000000000008152935191936001600160a01b03909116926318160ddd92600480840193829003018186803b1580156102ce57600080fd5b505afa1580156102e2573d6000803e3d6000fd5b505050506040513d60208110156102f857600080fd5b5051115b156103095750600061030d565b5060015b9392505050565b60019392505050565b60008061032a84846101ea565b600081815260208190526040902080546001600160a01b0387167fffffffffffffffffffffffff000000000000000000000000000000000000000090911617815560010184905591505092915050565b60019056fea265627a7a723158202bb5dbc25da5168d38fb64cdddc63e1768853526f03655e8ca65b6c6122ea09264736f6c634300050d0032",
  "source": "pragma solidity >=0.5.13;\n\nimport \"openzeppelin-solidity/contracts/token/ERC20/IERC20.sol\";\nimport \"./GlobalConstraintInterface.sol\";\n\n\n/**\n * @title Token Cap Global Constraint\n * @dev A simple global constraint to cap the number of tokens.\n */\n\ncontract TokenCapGC {\n    // A set of parameters, on which the cap will be checked:\n    struct Parameters {\n        IERC20 token;\n        uint256 cap;\n    }\n\n    // Mapping from the hash of the parameters to the parameters themselves:\n    mapping (bytes32=>Parameters) public parameters;\n\n    /**\n     * @dev adding a new set of parameters\n     * @param  _token the token to add to the params.\n     * @param _cap the cap to check the total supply against.\n     * @return the calculated parameters hash\n     */\n    function setParameters(IERC20 _token, uint256 _cap) public returns(bytes32) {\n        bytes32 paramsHash = getParametersHash(_token, _cap);\n        parameters[paramsHash].token = _token;\n        parameters[paramsHash].cap = _cap;\n        return paramsHash;\n    }\n\n    /**\n     * @dev calculate and returns the hash of the given parameters\n     * @param  _token the token to add to the params.\n     * @param _cap the cap to check the total supply against.\n     * @return the calculated parameters hash\n     */\n    function getParametersHash(IERC20 _token, uint256 _cap) public pure returns(bytes32) {\n        return (keccak256(abi.encodePacked(_token, _cap)));\n    }\n\n    /**\n     * @dev check the constraint after the action.\n     * This global constraint only checks the state after the action, so here we just return true:\n     * @return true\n     */\n    function pre(address, bytes32, bytes32) public pure returns(bool) {\n        return true;\n    }\n\n    /**\n     * @dev check the total supply cap.\n     * @param  _paramsHash the parameters hash to check the total supply cap against.\n     * @return bool which represents a success\n     */\n    function post(address, bytes32 _paramsHash, bytes32) public view returns(bool) {\n        if ((parameters[_paramsHash].token != IERC20(0)) &&\n            (parameters[_paramsHash].token.totalSupply() > parameters[_paramsHash].cap)) {\n            return false;\n        }\n        return true;\n    }\n\n    /**\n     * @dev when return if this globalConstraints is pre, post or both.\n     * @return CallPhase enum indication  Pre, Post or PreAndPost.\n     */\n    function when() public pure returns(GlobalConstraintInterface.CallPhase) {\n        return GlobalConstraintInterface.CallPhase.Post;\n    }\n}\n",
  "sourcePath": "/home/obaranni/blaize/snglsDAO-smartcontracts/dao/contracts/globalConstraints/TokenCapGC.sol",
  "compiler": {
    "name": "solc",
    "version": "0.5.13+commit.5b0b510c.Emscripten.clang"
  },
  "schemaVersion": "3.0.23",
  "updatedAt": "2020-03-23T21:09:01.051Z",
  "networkType": "ethereum",
  "devdoc": {
    "details": "A simple global constraint to cap the number of tokens.",
    "methods": {
      "getParametersHash(address,uint256)": {
        "details": "calculate and returns the hash of the given parameters",
        "params": {
          "_cap": "the cap to check the total supply against.",
          "_token": "the token to add to the params."
        },
        "return": "the calculated parameters hash"
      },
      "post(address,bytes32,bytes32)": {
        "details": "check the total supply cap.",
        "params": {
          "_paramsHash": "the parameters hash to check the total supply cap against."
        },
        "return": "bool which represents a success"
      },
      "pre(address,bytes32,bytes32)": {
        "details": "check the constraint after the action. This global constraint only checks the state after the action, so here we just return true:",
        "return": "true"
      },
      "setParameters(address,uint256)": {
        "details": "adding a new set of parameters",
        "params": {
          "_cap": "the cap to check the total supply against.",
          "_token": "the token to add to the params."
        },
        "return": "the calculated parameters hash"
      },
      "when()": {
        "details": "when return if this globalConstraints is pre, post or both.",
        "return": "CallPhase enum indication  Pre, Post or PreAndPost."
      }
    },
    "title": "Token Cap Global Constraint"
  },
  "userdoc": {
    "methods": {}
  }
}